Component: ARM Compiler 5.06 update 6 (build 750) Tool: armlink [4d35ed]

==============================================================================

Section Cross References

    startup_stm32g431xx.o(RESET) refers to startup_stm32g431xx.o(STACK) for __initial_sp
    startup_stm32g431xx.o(RESET) refers to startup_stm32g431xx.o(.text) for Reset_Handler
    startup_stm32g431xx.o(RESET) refers to stm32g4xx_it.o(i.NMI_Handler) for NMI_Handler
    startup_stm32g431xx.o(RESET) refers to stm32g4xx_it.o(i.HardFault_Handler) for HardFault_Handler
    startup_stm32g431xx.o(RESET) refers to stm32g4xx_it.o(i.MemManage_Handler) for MemManage_Handler
    startup_stm32g431xx.o(RESET) refers to stm32g4xx_it.o(i.BusFault_Handler) for BusFault_Handler
    startup_stm32g431xx.o(RESET) refers to stm32g4xx_it.o(i.UsageFault_Handler) for UsageFault_Handler
    startup_stm32g431xx.o(RESET) refers to stm32g4xx_it.o(i.SVC_Handler) for SVC_Handler
    startup_stm32g431xx.o(RESET) refers to stm32g4xx_it.o(i.DebugMon_Handler) for DebugMon_Handler
    startup_stm32g431xx.o(RESET) refers to stm32g4xx_it.o(i.PendSV_Handler) for PendSV_Handler
    startup_stm32g431xx.o(RESET) refers to stm32g4xx_it.o(i.SysTick_Handler) for SysTick_Handler
    startup_stm32g431xx.o(RESET) refers to stm32g4xx_it.o(i.DMA1_Channel2_IRQHandler) for DMA1_Channel2_IRQHandler
    startup_stm32g431xx.o(RESET) refers to stm32g4xx_it.o(i.ADC1_2_IRQHandler) for ADC1_2_IRQHandler
    startup_stm32g431xx.o(RESET) refers to stm32g4xx_it.o(i.FDCAN1_IT0_IRQHandler) for FDCAN1_IT0_IRQHandler
    startup_stm32g431xx.o(RESET) refers to stm32g4xx_it.o(i.TIM1_UP_TIM16_IRQHandler) for TIM1_UP_TIM16_IRQHandler
    startup_stm32g431xx.o(.text) refers to system_stm32g4xx.o(i.SystemInit) for SystemInit
    startup_stm32g431xx.o(.text) refers to entry.o(.ARM.Collect$$$$00000000) for __main
    main.o(i.MX_ADC1_Init) refers to memseta.o(.text) for __aeabi_memclr4
==============================================================================

Removing Unused input sections from the image.

    Removing startup_stm32g431xx.o(HEAP), (512 bytes).
    Removing main.o(.rev16_text), (4 bytes).
    Removing main.o(.revsh_text), (4 bytes).
    Removing main.o(.rrx_text), (6 bytes).
    Removing stm32g4xx_it.o(.rev16_text), (4 bytes).
    Removing stm32g4xx_it.o(.revsh_text), (4 bytes).
    Removing stm32g4xx_it.o(.rrx_text), (6 bytes).
    Removing stm32g4xx_hal_msp.o(.rev16_text), (4 bytes).
    Removing stm32g4xx_hal_msp.o(.revsh_text), (4 bytes).
    Removing stm32g4xx_hal_msp.o(.rrx_text), (6 bytes).
    Removing stm32g4xx_hal_msp.o(i.HAL_ADC_MspDeInit), (88 bytes).
    Removing stm32g4xx_hal_msp.o(i.HAL_CORDIC_MspDeInit), (28 bytes).
    Removing stm32g4xx_hal_msp.o(i.HAL_FDCAN_MspDeInit), (52 bytes).
    Removing stm32g4xx_hal_msp.o(i.HAL_OPAMP_MspDeInit), (44 bytes).
    Removing stm32g4xx_hal_msp.o(i.HAL_TIM_Base_MspDeInit), (64 bytes).
    Removing stm32g4xx_hal_adc.o(.rev16_text), (4 bytes).
    Removing stm32g4xx_hal_adc.o(.revsh_text), (4 bytes).
    Removing stm32g4xx_hal_adc.o(.rrx_text), (6 bytes).
==============================================================================

Image Symbol Table

    Local Symbols

    Symbol Name                              Value     Ov Type        Size  Object(Section)

    ../Core/Src/main.c                       0x00000000   Number         0  main.o ABSOLUTE
    ../Core/Src/stm32g4xx_hal_msp.c          0x00000000   Number         0  stm32g4xx_hal_msp.o ABSOLUTE
    ../Core/Src/stm32g4xx_it.c               0x00000000   Number         0  stm32g4xx_it.o ABSOLUTE
    ../Core/Src/system_stm32g4xx.c           0x00000000   Number         0  system_stm32g4xx.o ABSOLUTE
    ../Drivers/STM32G4xx_HAL_Driver/Src/stm32g4xx_hal.c 0x00000000   Number         0  stm32g4xx_hal.o ABSOLUTE
    ../Drivers/STM32G4xx_HAL_Driver/Src/stm32g4xx_hal_adc.c 0x00000000   Number         0  stm32g4xx_hal_adc.o ABSOLUTE
    ../Drivers/STM32G4xx_HAL_Driver/Src/stm32g4xx_hal_adc_ex.c 0x00000000   Number         0  stm32g4xx_hal_adc_ex.o ABSOLUTE
    ../Drivers/STM32G4xx_HAL_Driver/Src/stm32g4xx_hal_cortex.c 0x00000000   Number         0  stm32g4xx_hal_cortex.o ABSOLUTE
    ../Drivers/STM32G4xx_HAL_Driver/Src/stm32g4xx_hal_dma.c 0x00000000   Number         0  stm32g4xx_hal_dma.o ABSOLUTE
    ../Drivers/STM32G4xx_HAL_Driver/Src/stm32g4xx_hal_dma_ex.c 0x00000000   Number         0  stm32g4xx_hal_dma_ex.o ABSOLUTE
    ../Drivers/STM32G4xx_HAL_Driver/Src/stm32g4xx_hal_exti.c 0x00000000   Number         0  stm32g4xx_hal_exti.o ABSOLUTE
    ../Drivers/STM32G4xx_HAL_Driver/Src/stm32g4xx_hal_fdcan.c 0x00000000   Number         0  stm32g4xx_hal_fdcan.o ABSOLUTE
    ../Drivers/STM32G4xx_HAL_Driver/Src/stm32g4xx_hal_flash.c 0x00000000   Number         0  stm32g4xx_hal_flash.o ABSOLUTE
    ../Drivers/STM32G4xx_HAL_Driver/Src/stm32g4xx_hal_flash_ex.c 0x00000000   Number         0  stm32g4xx_hal_flash_ex.o ABSOLUTE
    ../Drivers/STM32G4xx_HAL_Driver/Src/stm32g4xx_hal_flash_ramfunc.c 0x00000000   Number         0  stm32g4xx_hal_flash_ramfunc.o ABSOLUTE
    ../Drivers/STM32G4xx_HAL_Driver/Src/stm32g4xx_hal_gpio.c 0x00000000   Number         0  stm32g4xx_hal_gpio.o ABSOLUTE
    ../Drivers/STM32G4xx_HAL_Driver/Src/stm32g4xx_hal_opamp.c 0x00000000   Number         0  stm32g4xx_hal_opamp.o ABSOLUTE
    ../Drivers/STM32G4xx_HAL_Driver/Src/stm32g4xx_hal_opamp_ex.c 0x00000000   Number         0  stm32g4xx_hal_opamp_ex.o ABSOLUTE
    ../Drivers/STM32G4xx_HAL_Driver/Src/stm32g4xx_hal_pwr.c 0x00000000   Number         0  stm32g4xx_hal_pwr.o ABSOLUTE
    ../Drivers/STM32G4xx_HAL_Driver/Src/stm32g4xx_hal_pwr_ex.c 0x00000000   Number         0  stm32g4xx_hal_pwr_ex.o ABSOLUTE
    ../Drivers/STM32G4xx_HAL_Driver/Src/stm32g4xx_hal_rcc.c 0x00000000   Number         0  stm32g4xx_hal_rcc.o ABSOLUTE
    ../Drivers/STM32G4xx_HAL_Driver/Src/stm32g4xx_hal_rcc_ex.c 0x00000000   Number         0  stm32g4xx_hal_rcc_ex.o ABSOLUTE
    ../Drivers/STM32G4xx_HAL_Driver/Src/stm32g4xx_hal_tim.c 0x00000000   Number         0  stm32g4xx_hal_tim.o ABSOLUTE
    ../Drivers/STM32G4xx_HAL_Driver/Src/stm32g4xx_hal_tim_ex.c 0x00000000   Number         0  stm32g4xx_hal_tim_ex.o ABSOLUTE
    ../Drivers/STM32G4xx_HAL_Driver/Src/stm32g4xx_ll_adc.c 0x00000000   Number         0  stm32g4xx_ll_adc.o ABSOLUTE
    ../clib/microlib/init/entry.s            0x00000000   Number         0  entry.o ABSOLUTE
    ../clib/microlib/init/entry.s            0x00000000   Number         0  entry7b.o ABSOLUTE
    ../clib/microlib/init/entry.s            0x00000000   Number         0  entry7a.o ABSOLUTE
    ../clib/microlib/init/entry.s            0x00000000   Number         0  entry5.o ABSOLUTE
    ../clib/microlib/init/entry.s            0x00000000   Number         0  entry8a.o ABSOLUTE
    ../clib/microlib/init/entry.s            0x00000000   Number         0  entry8b.o ABSOLUTE
    ../clib/microlib/init/entry.s            0x00000000   Number         0  entry11b.o ABSOLUTE
    ../clib/microlib/init/entry.s            0x00000000   Number         0  entry11a.o ABSOLUTE
    ../clib/microlib/init/entry.s            0x00000000   Number         0  entry2.o ABSOLUTE
    ../clib/microlib/init/entry.s            0x00000000   Number         0  entry10b.o ABSOLUTE
    ../clib/microlib/init/entry.s            0x00000000   Number         0  entry9a.o ABSOLUTE
    ../clib/microlib/init/entry.s            0x00000000   Number         0  entry10a.o ABSOLUTE
    ../clib/microlib/init/entry.s            0x00000000   Number         0  entry9b.o ABSOLUTE
    ../clib/microlib/string/memset.c         0x00000000   Number         0  memseta.o ABSOLUTE
    ..\Core\Src\main.c                       0x00000000   Number         0  main.o ABSOLUTE
    ..\Core\Src\stm32g4xx_hal_msp.c          0x00000000   Number         0  stm32g4xx_hal_msp.o ABSOLUTE
    ..\Core\Src\stm32g4xx_it.c               0x00000000   Number         0  stm32g4xx_it.o ABSOLUTE
    ..\Core\Src\system_stm32g4xx.c           0x00000000   Number         0  system_stm32g4xx.o ABSOLUTE
    ..\Drivers\STM32G4xx_HAL_Driver\Src\stm32g4xx_hal.c 0x00000000   Number         0  stm32g4xx_hal.o ABSOLUTE
    ..\Drivers\STM32G4xx_HAL_Driver\Src\stm32g4xx_hal_adc.c 0x00000000   Number         0  stm32g4xx_hal_adc.o ABSOLUTE
    ..\Drivers\STM32G4xx_HAL_Driver\Src\stm32g4xx_hal_adc_ex.c 0x00000000   Number         0  stm32g4xx_hal_adc_ex.o ABSOLUTE
    ..\Drivers\STM32G4xx_HAL_Driver\Src\stm32g4xx_hal_cordic.c 0x00000000   Number         0  stm32g4xx_hal_cordic.o ABSOLUTE
    ..\Drivers\STM32G4xx_HAL_Driver\Src\stm32g4xx_hal_cortex.c 0x00000000   Number         0  stm32g4xx_hal_cortex.o ABSOLUTE
    ..\Drivers\STM32G4xx_HAL_Driver\Src\stm32g4xx_hal_dma.c 0x00000000   Number         0  stm32g4xx_hal_dma.o ABSOLUTE
    ..\Drivers\STM32G4xx_HAL_Driver\Src\stm32g4xx_hal_dma_ex.c 0x00000000   Number         0  stm32g4xx_hal_dma_ex.o ABSOLUTE
    ..\Drivers\STM32G4xx_HAL_Driver\Src\stm32g4xx_hal_exti.c 0x00000000   Number         0  stm32g4xx_hal_exti.o ABSOLUTE
    ..\Drivers\STM32G4xx_HAL_Driver\Src\stm32g4xx_hal_fdcan.c 0x00000000   Number         0  stm32g4xx_hal_fdcan.o ABSOLUTE
    ..\Drivers\STM32G4xx_HAL_Driver\Src\stm32g4xx_hal_flash.c 0x00000000   Number         0  stm32g4xx_hal_flash.o ABSOLUTE
    ..\Drivers\STM32G4xx_HAL_Driver\Src\stm32g4xx_hal_flash_ex.c 0x00000000   Number         0  stm32g4xx_hal_flash_ex.o ABSOLUTE
    ..\Drivers\STM32G4xx_HAL_Driver\Src\stm32g4xx_hal_flash_ramfunc.c 0x00000000   Number         0  stm32g4xx_hal_flash_ramfunc.o ABSOLUTE
    ..\Drivers\STM32G4xx_HAL_Driver\Src\stm32g4xx_hal_gpio.c 0x00000000   Number         0  stm32g4xx_hal_gpio.o ABSOLUTE
    ..\Drivers\STM32G4xx_HAL_Driver\Src\stm32g4xx_hal_opamp.c 0x00000000   Number         0  stm32g4xx_hal_opamp.o ABSOLUTE
    ..\Drivers\STM32G4xx_HAL_Driver\Src\stm32g4xx_hal_opamp_ex.c 0x00000000   Number         0  stm32g4xx_hal_opamp_ex.o ABSOLUTE
    ..\Drivers\STM32G4xx_HAL_Driver\Src\stm32g4xx_hal_pwr.c 0x00000000   Number         0  stm32g4xx_hal_pwr.o ABSOLUTE
    ..\Drivers\STM32G4xx_HAL_Driver\Src\stm32g4xx_hal_pwr_ex.c 0x00000000   Number         0  stm32g4xx_hal_pwr_ex.o ABSOLUTE
    ..\Drivers\STM32G4xx_HAL_Driver\Src\stm32g4xx_hal_rcc.c 0x00000000   Number         0  stm32g4xx_hal_rcc.o ABSOLUTE
    ..\Drivers\STM32G4xx_HAL_Driver\Src\stm32g4xx_hal_rcc_ex.c 0x00000000   Number         0  stm32g4xx_hal_rcc_ex.o ABSOLUTE
    ..\Drivers\STM32G4xx_HAL_Driver\Src\stm32g4xx_hal_tim.c 0x00000000   Number         0  stm32g4xx_hal_tim.o ABSOLUTE
    ..\Drivers\STM32G4xx_HAL_Driver\Src\stm32g4xx_hal_tim_ex.c 0x00000000   Number         0  stm32g4xx_hal_tim_ex.o ABSOLUTE
    ..\FOC\Src\FOC_Svpwm.c                   0x00000000   Number         0  foc_svpwm.o ABSOLUTE
    ..\FOC\Src\FOC_Tasks.c                   0x00000000   Number         0  foc_tasks.o ABSOLUTE
    ..\FOC\Src\MC_Math.c                     0x00000000   Number         0  mc_math.o ABSOLUTE
    ..\FOC\Src\PID_Regulator.c               0x00000000   Number         0  pid_regulator.o ABSOLUTE
    ..\FOC\Src\Trajectory_ctrl.c             0x00000000   Number         0  trajectory_ctrl.o ABSOLUTE
    ..\FOC\Src\Ui_can.c                      0x00000000   Number         0  ui_can.o ABSOLUTE
    ..\MG\Src\MG_grid .c                     0x00000000   Number         0  mg_grid .o ABSOLUTE
    ..\\Drivers\\STM32G4xx_HAL_Driver\\Src\\stm32g4xx_hal_cordic.c 0x00000000   Number         0  stm32g4xx_hal_cordic.o ABSOLUTE
    ..\\FOC\\Src\\FOC_Svpwm.c                0x00000000   Number         0  foc_svpwm.o ABSOLUTE
    ..\\FOC\\Src\\FOC_Tasks.c                0x00000000   Number         0  foc_tasks.o ABSOLUTE
    ..\\FOC\\Src\\MC_Math.c                  0x00000000   Number         0  mc_math.o ABSOLUTE
    ..\\FOC\\Src\\PID_Regulator.c            0x00000000   Number         0  pid_regulator.o ABSOLUTE
    ..\\FOC\\Src\\Trajectory_ctrl.c          0x00000000   Number         0  trajectory_ctrl.o ABSOLUTE
    ..\\FOC\\Src\\Ui_can.c                   0x00000000   Number         0  ui_can.o ABSOLUTE
    ..\\MG\\Src\\MG_grid .c                  0x00000000   Number         0  mg_grid .o ABSOLUTE
    dc.s                                     0x00000000   Number         0  dc.o ABSOLUTE
    handlers.s                               0x00000000   Number         0  handlers.o ABSOLUTE
    init.s                                   0x00000000   Number         0  init.o ABSOLUTE
    startup_stm32g431xx.s                    0x00000000   Number         0  startup_stm32g431xx.o ABSOLUTE
    RESET                                    0x08000000   Section      472  startup_stm32g431xx.o(RESET)
    .ARM.Collect$$$$00000000                 0x080001d8   Section        0  entry.o(.ARM.Collect$$$$00000000)
    .ARM.Collect$$$$00000001                 0x080001d8   Section        4  entry2.o(.ARM.Collect$$$$00000001)
    .ARM.Collect$$$$00000004                 0x080001dc   Section        4  entry5.o(.ARM.Collect$$$$00000004)
    .ARM.Collect$$$$00000008                 0x080001e0   Section        0  entry7b.o(.ARM.Collect$$$$00000008)
    .ARM.Collect$$$$0000000A                 0x080001e0   Section        0  entry8b.o(.ARM.Collect$$$$0000000A)
    .ARM.Collect$$$$0000000B                 0x080001e0   Section        8  entry9a.o(.ARM.Collect$$$$0000000B)
    .ARM.Collect$$$$0000000D                 0x080001e8   Section        0  entry10a.o(.ARM.Collect$$$$0000000D)
    .ARM.Collect$$$$0000000F                 0x080001e8   Section        0  entry11a.o(.ARM.Collect$$$$0000000F)
    .ARM.Collect$$$$00002712                 0x080001e8   Section        4  entry2.o(.ARM.Collect$$$$00002712)
    __lit__00000000                          0x080001e8   Data           4  entry2.o(.ARM.Collect$$$$00002712)
    .text                                    0x080001ec   Section       36  startup_stm32g431xx.o(.text)
    $v0                                      0x080001ec   Number         0  startup_stm32g431xx.o(.text)
    .text                                    0x08000210   Section        0  memseta.o(.text)
    .text                                    0x08000234   Section       36  init.o(.text)
    i.ADC1_2_IRQHandler                      0x08000258   Section        0  stm32g4xx_it.o(i.ADC1_2_IRQHandler)
    i.ADC_DMAConvCplt                        0x08000264   Section        0  stm32g4xx_hal_adc.o(i.ADC_DMAConvCplt)
    i.ADC_DMAError                           0x080002cc   Section        0  stm32g4xx_hal_adc.o(i.ADC_DMAError)
    i.ADC_DMAHalfConvCplt                    0x080002e6   Section        0  stm32g4xx_hal_adc.o(i.ADC_DMAHalfConvCplt)
    i.ADC_Enable                             0x080002f0   Section        0  stm32g4xx_hal_adc.o(i.ADC_Enable)
    i.BCD_to_float                           0x08000358   Section        0  ui_can.o(i.BCD_to_float)
    i.BusFault_Handler                       0x0800039c   Section        0  stm32g4xx_it.o(i.BusFault_Handler)
    i.DMA1_Channel2_IRQHandler               0x080003a0   Section        0  stm32g4xx_it.o(i.DMA1_Channel2_IRQHandler)
    i.DMA_CalcDMAMUXChannelBaseAndMask       0x080003ac   Section        0  stm32g4xx_hal_dma.o(i.DMA_CalcDMAMUXChannelBaseAndMask)
    DMA_CalcDMAMUXChannelBaseAndMask         0x080003ad   Thumb Code    54  stm32g4xx_hal_dma.o(i.DMA_CalcDMAMUXChannelBaseAndMask)
    i.DMA_CalcDMAMUXRequestGenBaseAndMask    0x080003ec   Section        0  stm32g4xx_hal_dma.o(i.DMA_CalcDMAMUXRequestGenBaseAndMask)
    DMA_CalcDMAMUXRequestGenBaseAndMask      0x080003ed   Thumb Code    30  stm32g4xx_hal_dma.o(i.DMA_CalcDMAMUXRequestGenBaseAndMask)
    i.DMA_SetConfig                          0x08000410   Section        0  stm32g4xx_hal_dma.o(i.DMA_SetConfig)
    DMA_SetConfig                            0x08000411   Thumb Code    62  stm32g4xx_hal_dma.o(i.DMA_SetConfig)
    i.DebugMon_Handler                       0x0800044e   Section        0  stm32g4xx_it.o(i.DebugMon_Handler)
    i.Error_Handler                          0x08000450   Section        0  main.o(i.Error_Handler)
    i.FDCAN1_IT0_IRQHandler                  0x08000454   Section        0  stm32g4xx_it.o(i.FDCAN1_IT0_IRQHandler)
    i.FOC_CurrController                     0x08000460   Section        0  foc_tasks.o(i.FOC_CurrController)
    i.FOC_Ini                                0x0800046c   Section        0  foc_tasks.o(i.FOC_Ini)
    i.HAL_ADCEx_InjectedConfigChannel        0x08000498   Section        0  stm32g4xx_hal_adc_ex.o(i.HAL_ADCEx_InjectedConfigChannel)
    i.HAL_ADCEx_MultiModeConfigChannel       0x080009b0   Section        0  stm32g4xx_hal_adc_ex.o(i.HAL_ADCEx_MultiModeConfigChannel)
    i.HAL_ADC_ConfigChannel                  0x08000a84   Section        0  stm32g4xx_hal_adc.o(i.HAL_ADC_ConfigChannel)
    i.HAL_ADC_ConvCpltCallback               0x08000ea4   Section        0  mg_grid .o(i.HAL_ADC_ConvCpltCallback)
    i.HAL_ADC_ConvHalfCpltCallback           0x08000f34   Section        0  stm32g4xx_hal_adc.o(i.HAL_ADC_ConvHalfCpltCallback)
    i.HAL_ADC_ErrorCallback                  0x08000f36   Section        0  stm32g4xx_hal_adc.o(i.HAL_ADC_ErrorCallback)
    i.HAL_ADC_Init                           0x08000f38   Section        0  stm32g4xx_hal_adc.o(i.HAL_ADC_Init)
    i.HAL_ADC_MspInit                        0x08001130   Section        0  stm32g4xx_hal_msp.o(i.HAL_ADC_MspInit)
    i.HAL_ADC_Start_DMA                      0x08001204   Section        0  stm32g4xx_hal_adc.o(i.HAL_ADC_Start_DMA)
    i.HAL_CORDIC_Init                        0x080012f4   Section        0  stm32g4xx_hal_cordic.o(i.HAL_CORDIC_Init)
    i.HAL_CORDIC_MspInit                     0x08001328   Section        0  stm32g4xx_hal_msp.o(i.HAL_CORDIC_MspInit)
    i.HAL_DMA_IRQHandler                     0x08001350   Section        0  stm32g4xx_hal_dma.o(i.HAL_DMA_IRQHandler)
    i.HAL_DMA_Init                           0x0800140c   Section        0  stm32g4xx_hal_dma.o(i.HAL_DMA_Init)
    i.HAL_DMA_Start_IT                       0x080014cc   Section        0  stm32g4xx_hal_dma.o(i.HAL_DMA_Start_IT)
    i.HAL_Delay                              0x08001558   Section        0  stm32g4xx_hal.o(i.HAL_Delay)
    i.HAL_FDCAN_ActivateNotification         0x0800157c   Section        0  stm32g4xx_hal_fdcan.o(i.HAL_FDCAN_ActivateNotification)
    i.HAL_FDCAN_ConfigFilter                 0x0800165c   Section        0  stm32g4xx_hal_fdcan.o(i.HAL_FDCAN_ConfigFilter)
    i.HAL_FDCAN_ConfigGlobalFilter           0x080016b8   Section        0  stm32g4xx_hal_fdcan.o(i.HAL_FDCAN_ConfigGlobalFilter)
    i.HAL_FDCAN_ErrorCallback                0x080016ee   Section        0  stm32g4xx_hal_fdcan.o(i.HAL_FDCAN_ErrorCallback)
    i.HAL_FDCAN_ErrorStatusCallback          0x080016f0   Section        0  stm32g4xx_hal_fdcan.o(i.HAL_FDCAN_ErrorStatusCallback)
    i.HAL_FDCAN_GetRxMessage                 0x080016f4   Section        0  stm32g4xx_hal_fdcan.o(i.HAL_FDCAN_GetRxMessage)
    i.HAL_FDCAN_HighPriorityMessageCallback  0x080017e4   Section        0  stm32g4xx_hal_fdcan.o(i.HAL_FDCAN_HighPriorityMessageCallback)
    i.HAL_FDCAN_IRQHandler                   0x080017e6   Section        0  stm32g4xx_hal_fdcan.o(i.HAL_FDCAN_IRQHandler)
    i.HAL_FDCAN_Init                         0x08001948   Section        0  stm32g4xx_hal_fdcan.o(i.HAL_FDCAN_Init)
    i.HAL_FDCAN_MspInit                      0x08001b4c   Section        0  stm32g4xx_hal_msp.o(i.HAL_FDCAN_MspInit)
    i.HAL_FDCAN_RxFifo0Callback              0x08001bbc   Section        0  ui_can.o(i.HAL_FDCAN_RxFifo0Callback)
    i.HAL_FDCAN_RxFifo1Callback              0x08001c14   Section        0  stm32g4xx_hal_fdcan.o(i.HAL_FDCAN_RxFifo1Callback)
    i.HAL_FDCAN_Start                        0x08001c16   Section        0  stm32g4xx_hal_fdcan.o(i.HAL_FDCAN_Start)
    i.HAL_FDCAN_TimeoutOccurredCallback      0x08001c42   Section        0  stm32g4xx_hal_fdcan.o(i.HAL_FDCAN_TimeoutOccurredCallback)
    i.HAL_FDCAN_TimestampWraparoundCallback  0x08001c44   Section        0  stm32g4xx_hal_fdcan.o(i.HAL_FDCAN_TimestampWraparoundCallback)
    i.HAL_FDCAN_TxBufferAbortCallback        0x08001c46   Section        0  stm32g4xx_hal_fdcan.o(i.HAL_FDCAN_TxBufferAbortCallback)
    i.HAL_FDCAN_TxBufferCompleteCallback     0x08001c48   Section        0  stm32g4xx_hal_fdcan.o(i.HAL_FDCAN_TxBufferCompleteCallback)
    i.HAL_FDCAN_TxEventFifoCallback          0x08001c4a   Section        0  stm32g4xx_hal_fdcan.o(i.HAL_FDCAN_TxEventFifoCallback)
    i.HAL_FDCAN_TxFifoEmptyCallback          0x08001c4c   Section        0  stm32g4xx_hal_fdcan.o(i.HAL_FDCAN_TxFifoEmptyCallback)
    i.HAL_GPIO_Init                          0x08001c50   Section        0  stm32g4xx_hal_gpio.o(i.HAL_GPIO_Init)
    i.HAL_GPIO_TogglePin                     0x08001e18   Section        0  stm32g4xx_hal_gpio.o(i.HAL_GPIO_TogglePin)
    i.HAL_GPIO_WritePin                      0x08001e28   Section        0  stm32g4xx_hal_gpio.o(i.HAL_GPIO_WritePin)
    i.HAL_GetTick                            0x08001e34   Section        0  stm32g4xx_hal.o(i.HAL_GetTick)
    i.HAL_IncTick                            0x08001e40   Section        0  stm32g4xx_hal.o(i.HAL_IncTick)
    i.HAL_Init                               0x08001e50   Section        0  stm32g4xx_hal.o(i.HAL_Init)
    i.HAL_InitTick                           0x08001e70   Section        0  stm32g4xx_hal.o(i.HAL_InitTick)
    i.HAL_MspInit                            0x08001eb4   Section        0  stm32g4xx_hal_msp.o(i.HAL_MspInit)
    i.HAL_NVIC_EnableIRQ                     0x08001ee4   Section        0  stm32g4xx_hal_cortex.o(i.HAL_NVIC_EnableIRQ)
    i.HAL_NVIC_SetPriority                   0x08001f00   Section        0  stm32g4xx_hal_cortex.o(i.HAL_NVIC_SetPriority)
    i.HAL_NVIC_SetPriorityGrouping           0x08001f40   Section        0  stm32g4xx_hal_cortex.o(i.HAL_NVIC_SetPriorityGrouping)
    i.HAL_OPAMP_Init                         0x08001f64   Section        0  stm32g4xx_hal_opamp.o(i.HAL_OPAMP_Init)
    i.HAL_OPAMP_MspInit                      0x08002058   Section        0  stm32g4xx_hal_msp.o(i.HAL_OPAMP_MspInit)
    i.HAL_OPAMP_Start                        0x080020cc   Section        0  stm32g4xx_hal_opamp.o(i.HAL_OPAMP_Start)
    i.HAL_PWREx_ControlVoltageScaling        0x080020f8   Section        0  stm32g4xx_hal_pwr_ex.o(i.HAL_PWREx_ControlVoltageScaling)
    i.HAL_PWREx_DisableUCPDDeadBattery       0x080021b4   Section        0  stm32g4xx_hal_pwr_ex.o(i.HAL_PWREx_DisableUCPDDeadBattery)
    i.HAL_RCCEx_PeriphCLKConfig              0x080021c4   Section        0  stm32g4xx_hal_rcc_ex.o(i.HAL_RCCEx_PeriphCLKConfig)
    i.HAL_RCC_ClockConfig                    0x0800244c   Section        0  stm32g4xx_hal_rcc.o(i.HAL_RCC_ClockConfig)
    i.HAL_RCC_GetSysClockFreq                0x08002628   Section        0  stm32g4xx_hal_rcc.o(i.HAL_RCC_GetSysClockFreq)
    i.HAL_RCC_OscConfig                      0x08002694   Section        0  stm32g4xx_hal_rcc.o(i.HAL_RCC_OscConfig)
    i.HAL_SYSTICK_Config                     0x08002aa0   Section        0  stm32g4xx_hal_cortex.o(i.HAL_SYSTICK_Config)
    i.HAL_TIMEx_ConfigBreakDeadTime          0x08002ac8   Section        0  stm32g4xx_hal_tim_ex.o(i.HAL_TIMEx_ConfigBreakDeadTime)
    i.HAL_TIMEx_MasterConfigSynchronization  0x08002b74   Section        0  stm32g4xx_hal_tim_ex.o(i.HAL_TIMEx_MasterConfigSynchronization)
    i.HAL_TIM_Base_Init                      0x08002c10   Section        0  stm32g4xx_hal_tim.o(i.HAL_TIM_Base_Init)
    i.HAL_TIM_Base_MspInit                   0x08002c74   Section        0  stm32g4xx_hal_msp.o(i.HAL_TIM_Base_MspInit)
    i.HAL_TIM_Base_Start                     0x08002d14   Section        0  stm32g4xx_hal_tim.o(i.HAL_TIM_Base_Start)
    i.HAL_TIM_ConfigClockSource              0x08002d80   Section        0  stm32g4xx_hal_tim.o(i.HAL_TIM_ConfigClockSource)
    i.HAL_TIM_MspPostInit                    0x08002e78   Section        0  stm32g4xx_hal_msp.o(i.HAL_TIM_MspPostInit)
    i.HAL_TIM_OC_ConfigChannel               0x08002ecc   Section        0  stm32g4xx_hal_tim.o(i.HAL_TIM_OC_ConfigChannel)
    i.HAL_TIM_OC_Init                        0x08002f34   Section        0  stm32g4xx_hal_tim.o(i.HAL_TIM_OC_Init)
    i.HAL_TIM_OC_MspInit                     0x08002f96   Section        0  stm32g4xx_hal_tim.o(i.HAL_TIM_OC_MspInit)
    i.HAL_TIM_PWM_ConfigChannel              0x08002f98   Section        0  stm32g4xx_hal_tim.o(i.HAL_TIM_PWM_ConfigChannel)
    i.HAL_TIM_PWM_Init                       0x080030b6   Section        0  stm32g4xx_hal_tim.o(i.HAL_TIM_PWM_Init)
    i.HAL_TIM_PWM_MspInit                    0x08003118   Section        0  stm32g4xx_hal_tim.o(i.HAL_TIM_PWM_MspInit)
    i.HardFault_Handler                      0x0800311a   Section        0  stm32g4xx_it.o(i.HardFault_Handler)
    i.LL_ADC_GetOffsetChannel                0x0800311c   Section        0  stm32g4xx_hal_adc.o(i.LL_ADC_GetOffsetChannel)
    LL_ADC_GetOffsetChannel                  0x0800311d   Thumb Code    12  stm32g4xx_hal_adc.o(i.LL_ADC_GetOffsetChannel)
    i.LL_ADC_GetOffsetChannel                0x08003128   Section        0  stm32g4xx_hal_adc_ex.o(i.LL_ADC_GetOffsetChannel)
    LL_ADC_GetOffsetChannel                  0x08003129   Thumb Code    12  stm32g4xx_hal_adc_ex.o(i.LL_ADC_GetOffsetChannel)
    i.LL_ADC_INJ_IsConversionOngoing         0x08003134   Section        0  stm32g4xx_hal_adc.o(i.LL_ADC_INJ_IsConversionOngoing)
    LL_ADC_INJ_IsConversionOngoing           0x08003135   Thumb Code     8  stm32g4xx_hal_adc.o(i.LL_ADC_INJ_IsConversionOngoing)
    i.LL_ADC_INJ_IsConversionOngoing         0x0800313c   Section        0  stm32g4xx_hal_adc_ex.o(i.LL_ADC_INJ_IsConversionOngoing)
    LL_ADC_INJ_IsConversionOngoing           0x0800313d   Thumb Code     8  stm32g4xx_hal_adc_ex.o(i.LL_ADC_INJ_IsConversionOngoing)
    i.LL_ADC_REG_IsConversionOngoing         0x08003144   Section        0  stm32g4xx_hal_adc.o(i.LL_ADC_REG_IsConversionOngoing)
    LL_ADC_REG_IsConversionOngoing           0x08003145   Thumb Code     8  stm32g4xx_hal_adc.o(i.LL_ADC_REG_IsConversionOngoing)
    i.LL_ADC_REG_IsConversionOngoing         0x0800314c   Section        0  stm32g4xx_hal_adc_ex.o(i.LL_ADC_REG_IsConversionOngoing)
    LL_ADC_REG_IsConversionOngoing           0x0800314d   Thumb Code     8  stm32g4xx_hal_adc_ex.o(i.LL_ADC_REG_IsConversionOngoing)
    i.LL_ADC_REG_IsTriggerSourceSWStart      0x08003154   Section        0  stm32g4xx_hal_adc.o(i.LL_ADC_REG_IsTriggerSourceSWStart)
    LL_ADC_REG_IsTriggerSourceSWStart        0x08003155   Thumb Code    16  stm32g4xx_hal_adc.o(i.LL_ADC_REG_IsTriggerSourceSWStart)
    i.LL_ADC_SetChannelSamplingTime          0x08003164   Section        0  stm32g4xx_hal_adc.o(i.LL_ADC_SetChannelSamplingTime)
    LL_ADC_SetChannelSamplingTime            0x08003165   Thumb Code    30  stm32g4xx_hal_adc.o(i.LL_ADC_SetChannelSamplingTime)
    i.LL_ADC_SetChannelSamplingTime          0x08003182   Section        0  stm32g4xx_hal_adc_ex.o(i.LL_ADC_SetChannelSamplingTime)
    LL_ADC_SetChannelSamplingTime            0x08003183   Thumb Code    30  stm32g4xx_hal_adc_ex.o(i.LL_ADC_SetChannelSamplingTime)
    i.LL_ADC_SetOffsetState                  0x080031a0   Section        0  stm32g4xx_hal_adc.o(i.LL_ADC_SetOffsetState)
    LL_ADC_SetOffsetState                    0x080031a1   Thumb Code    16  stm32g4xx_hal_adc.o(i.LL_ADC_SetOffsetState)
    i.LL_ADC_SetOffsetState                  0x080031b0   Section        0  stm32g4xx_hal_adc_ex.o(i.LL_ADC_SetOffsetState)
    LL_ADC_SetOffsetState                    0x080031b1   Thumb Code    16  stm32g4xx_hal_adc_ex.o(i.LL_ADC_SetOffsetState)
    i.LL_GPIO_LockPin                        0x080031c0   Section        0  foc_svpwm.o(i.LL_GPIO_LockPin)
    LL_GPIO_LockPin                          0x080031c1   Thumb Code    18  foc_svpwm.o(i.LL_GPIO_LockPin)
    i.LL_TIM_OC_DisablePreload               0x080031d4   Section        0  foc_svpwm.o(i.LL_TIM_OC_DisablePreload)
    LL_TIM_OC_DisablePreload                 0x080031d5   Thumb Code   110  foc_svpwm.o(i.LL_TIM_OC_DisablePreload)
    i.LL_TIM_OC_EnablePreload                0x08003248   Section        0  foc_svpwm.o(i.LL_TIM_OC_EnablePreload)
    LL_TIM_OC_EnablePreload                  0x08003249   Thumb Code   110  foc_svpwm.o(i.LL_TIM_OC_EnablePreload)
    i.MX_ADC1_Init                           0x080032bc   Section        0  main.o(i.MX_ADC1_Init)
    MX_ADC1_Init                             0x080032bd   Thumb Code   186  main.o(i.MX_ADC1_Init)
    i.MX_ADC2_Init                           0x08003380   Section        0  main.o(i.MX_ADC2_Init)
    MX_ADC2_Init                             0x08003381   Thumb Code   142  main.o(i.MX_ADC2_Init)
    i.MX_FDCAN1_Init                         0x08003420   Section        0  main.o(i.MX_FDCAN1_Init)
    MX_FDCAN1_Init                           0x08003421   Thumb Code   182  main.o(i.MX_FDCAN1_Init)
    i.MX_GPIO_Init                           0x080034e4   Section        0  main.o(i.MX_GPIO_Init)
    MX_GPIO_Init                             0x080034e5   Thumb Code   168  main.o(i.MX_GPIO_Init)
    i.MX_OPAMP2_Init                         0x08003598   Section        0  main.o(i.MX_OPAMP2_Init)
    MX_OPAMP2_Init                           0x08003599   Thumb Code    54  main.o(i.MX_OPAMP2_Init)
    i.MX_OPAMP3_Init                         0x080035d8   Section        0  main.o(i.MX_OPAMP3_Init)
    MX_OPAMP3_Init                           0x080035d9   Thumb Code    54  main.o(i.MX_OPAMP3_Init)
    i.MX_TIM1_Init                           0x08003618   Section        0  main.o(i.MX_TIM1_Init)
    MX_TIM1_Init                             0x08003619   Thumb Code   326  main.o(i.MX_TIM1_Init)
    i.MX_TIM2_Init                           0x08003768   Section        0  main.o(i.MX_TIM2_Init)
    MX_TIM2_Init                             0x08003769   Thumb Code   102  main.o(i.MX_TIM2_Init)
    i.MemManage_Handler                      0x080037d4   Section        0  stm32g4xx_it.o(i.MemManage_Handler)
    i.Mg_Ini                                 0x080037d8   Section        0  mg_grid .o(i.Mg_Ini)
    i.NMI_Handler                            0x080037ec   Section        0  stm32g4xx_it.o(i.NMI_Handler)
    i.PID_Controller                         0x080037ee   Section        0  pid_regulator.o(i.PID_Controller)
    i.PID_HandleInit                         0x0800382a   Section        0  pid_regulator.o(i.PID_HandleInit)
    i.PI_Controller                          0x08003840   Section        0  pid_regulator.o(i.PI_Controller)
    i.PWMC_Ini                               0x080038c0   Section        0  foc_svpwm.o(i.PWMC_Ini)
    i.PWMC_SetPhaseVoltage                   0x080038f8   Section        0  foc_svpwm.o(i.PWMC_SetPhaseVoltage)
    i.PendSV_Handler                         0x08003a64   Section        0  stm32g4xx_it.o(i.PendSV_Handler)
    i.R1_CalcDutyCycles                      0x08003a68   Section        0  foc_svpwm.o(i.R1_CalcDutyCycles)
    R1_CalcDutyCycles                        0x08003a69   Thumb Code   496  foc_svpwm.o(i.R1_CalcDutyCycles)
    i.R1_Init                                0x08003c68   Section        0  foc_svpwm.o(i.R1_Init)
    i.R1_SwitchOnPWM                         0x08003e00   Section        0  foc_svpwm.o(i.R1_SwitchOnPWM)
    i.R1_TIMx_UP_IRQHandler                  0x08003e78   Section        0  foc_svpwm.o(i.R1_TIMx_UP_IRQHandler)
    i.SVC_Handler                            0x08003ef8   Section        0  stm32g4xx_it.o(i.SVC_Handler)
    i.SysTick_Handler                        0x08003efa   Section        0  stm32g4xx_it.o(i.SysTick_Handler)
    i.SystemClock_Config                     0x08003f0c   Section        0  main.o(i.SystemClock_Config)
    i.SystemInit                             0x08003f94   Section        0  system_stm32g4xx.o(i.SystemInit)
    i.TC_ExecRamp                            0x08003fb0   Section        0  trajectory_ctrl.o(i.TC_ExecRamp)
    i.TC_FollowExecution                     0x08003fcc   Section        0  trajectory_ctrl.o(i.TC_FollowExecution)
    i.TC_GetCurrentPosition                  0x08003ff4   Section        0  trajectory_ctrl.o(i.TC_GetCurrentPosition)
    i.TC_IncTick                             0x08004010   Section        0  trajectory_ctrl.o(i.TC_IncTick)
    i.TC_Init                                0x08004020   Section        0  trajectory_ctrl.o(i.TC_Init)
    i.TC_MoveCommand                         0x080040ac   Section        0  trajectory_ctrl.o(i.TC_MoveCommand)
    i.TC_MoveExecution                       0x0800418c   Section        0  trajectory_ctrl.o(i.TC_MoveExecution)
    i.TC_PositionRegulation                  0x08004290   Section        0  trajectory_ctrl.o(i.TC_PositionRegulation)
    i.TIM1_UP_TIM16_IRQHandler               0x080042fc   Section        0  stm32g4xx_it.o(i.TIM1_UP_TIM16_IRQHandler)
    i.TIM_Base_SetConfig                     0x0800430c   Section        0  stm32g4xx_hal_tim.o(i.TIM_Base_SetConfig)
    i.TIM_ETR_SetConfig                      0x080043bc   Section        0  stm32g4xx_hal_tim.o(i.TIM_ETR_SetConfig)
    i.TIM_ITRx_SetConfig                     0x080043d0   Section        0  stm32g4xx_hal_tim.o(i.TIM_ITRx_SetConfig)
    TIM_ITRx_SetConfig                       0x080043d1   Thumb Code    16  stm32g4xx_hal_tim.o(i.TIM_ITRx_SetConfig)
    i.TIM_OC1_SetConfig                      0x080043e4   Section        0  stm32g4xx_hal_tim.o(i.TIM_OC1_SetConfig)
    TIM_OC1_SetConfig                        0x080043e5   Thumb Code   132  stm32g4xx_hal_tim.o(i.TIM_OC1_SetConfig)
    i.TIM_OC2_SetConfig                      0x08004480   Section        0  stm32g4xx_hal_tim.o(i.TIM_OC2_SetConfig)
    i.TIM_OC3_SetConfig                      0x08004510   Section        0  stm32g4xx_hal_tim.o(i.TIM_OC3_SetConfig)
    TIM_OC3_SetConfig                        0x08004511   Thumb Code   118  stm32g4xx_hal_tim.o(i.TIM_OC3_SetConfig)
    i.TIM_OC4_SetConfig                      0x080045a0   Section        0  stm32g4xx_hal_tim.o(i.TIM_OC4_SetConfig)
    TIM_OC4_SetConfig                        0x080045a1   Thumb Code   120  stm32g4xx_hal_tim.o(i.TIM_OC4_SetConfig)
    i.TIM_OC5_SetConfig                      0x08004630   Section        0  stm32g4xx_hal_tim.o(i.TIM_OC5_SetConfig)
    TIM_OC5_SetConfig                        0x08004631   Thumb Code    86  stm32g4xx_hal_tim.o(i.TIM_OC5_SetConfig)
    i.TIM_OC6_SetConfig                      0x080046a0   Section        0  stm32g4xx_hal_tim.o(i.TIM_OC6_SetConfig)
    TIM_OC6_SetConfig                        0x080046a1   Thumb Code    88  stm32g4xx_hal_tim.o(i.TIM_OC6_SetConfig)
    i.TIM_TI1_ConfigInputStage               0x08004710   Section        0  stm32g4xx_hal_tim.o(i.TIM_TI1_ConfigInputStage)
    TIM_TI1_ConfigInputStage                 0x08004711   Thumb Code    34  stm32g4xx_hal_tim.o(i.TIM_TI1_ConfigInputStage)
    i.TIM_TI2_ConfigInputStage               0x08004732   Section        0  stm32g4xx_hal_tim.o(i.TIM_TI2_ConfigInputStage)
    TIM_TI2_ConfigInputStage                 0x08004733   Thumb Code    36  stm32g4xx_hal_tim.o(i.TIM_TI2_ConfigInputStage)
    i.UsageFault_Handler                     0x08004756   Section        0  stm32g4xx_it.o(i.UsageFault_Handler)
    i.__FastIntAtan2__                       0x08004758   Section        0  mg_grid .o(i.__FastIntAtan2__)
    i.__NVIC_SetPriority                     0x08004838   Section        0  stm32g4xx_hal_cortex.o(i.__NVIC_SetPriority)
    __NVIC_SetPriority                       0x08004839   Thumb Code    32  stm32g4xx_hal_cortex.o(i.__NVIC_SetPriority)
    i.__scatterload_copy                     0x08004858   Section       14  handlers.o(i.__scatterload_copy)
    i.__scatterload_null                     0x08004866   Section        2  handlers.o(i.__scatterload_null)
    i.__scatterload_zeroinit                 0x08004868   Section       14  handlers.o(i.__scatterload_zeroinit)
    i.main                                   0x08004878   Section        0  main.o(i.main)
    .constdata                               0x08004928   Section       16  stm32g4xx_hal_fdcan.o(.constdata)
    DLCtoBytes                               0x08004928   Data          16  stm32g4xx_hal_fdcan.o(.constdata)
    .constdata                               0x08004938   Section       16  system_stm32g4xx.o(.constdata)
    .constdata                               0x08004948   Section       56  foc_svpwm.o(.constdata)
    REGULAR_SAMP_CUR1                        0x08004948   Data           6  foc_svpwm.o(.constdata)
    REGULAR_SAMP_CUR2                        0x0800494e   Data           6  foc_svpwm.o(.constdata)
    BOUNDR1_SAMP_CUR2                        0x08004954   Data           6  foc_svpwm.o(.constdata)
    BOUNDR2_SAMP_CUR1                        0x0800495a   Data           6  foc_svpwm.o(.constdata)
    BOUNDR2_SAMP_CUR2                        0x08004960   Data           6  foc_svpwm.o(.constdata)
    CHANNEL_OFFSET_TAB                       0x08004966   Data           6  foc_svpwm.o(.constdata)
    OFFSET_TAB_CCMRx                         0x0800496c   Data          10  foc_svpwm.o(.constdata)
    SHIFT_TAB_OCxx                           0x08004976   Data          10  foc_svpwm.o(.constdata)
    .constdata                               0x08004980   Section       96  mg_grid .o(.constdata)
    __tanz                                   0x08004980   Data          32  mg_grid .o(.constdata)
    __angle                                  0x080049a0   Data          64  mg_grid .o(.constdata)
    .data                                    0x20000000   Section        4  stm32g4xx_hal_msp.o(.data)
    HAL_RCC_ADC12_CLK_ENABLED                0x20000000   Data           4  stm32g4xx_hal_msp.o(.data)
    .data                                    0x20000004   Section       12  stm32g4xx_hal.o(.data)
    .data                                    0x20000010   Section        4  system_stm32g4xx.o(.data)
    .data                                    0x20000014   Section       24  foc_svpwm.o(.data)
    .data                                    0x2000002c   Section        4  foc_tasks.o(.data)
    .data                                    0x20000030   Section       36  mg_grid .o(.data)
    last_flag                                0x20000030   Data           1  mg_grid .o(.data)
    .data                                    0x20000054   Section       44  pid_regulator.o(.data)
    .data                                    0x20000080   Section       44  pid_regulator.o(.data)
    .data                                    0x200000ac   Section       44  pid_regulator.o(.data)
    .data                                    0x200000d8   Section       20  trajectory_ctrl.o(.data)
    .data                                    0x200000ec   Section       24  ui_can.o(.data)
    .bss                                     0x20000104   Section      628  main.o(.bss)
    .bss                                     0x20000378   Section       96  main.o(.bss)
    .bss                                     0x200003d8   Section       96  main.o(.bss)
    .bss                                     0x20000438   Section       20  foc_svpwm.o(.bss)
    .bss                                     0x2000044c   Section      104  trajectory_ctrl.o(.bss)
    .bss                                     0x200004b4   Section       76  ui_can.o(.bss)
    STACK                                    0x20000500   Section     1024  startup_stm32g431xx.o(STACK)

    Global Symbols

    Symbol Name                              Value     Ov Type        Size  Object(Section)

    BuildAttributes$$THM_ISAv4$E$P$D$K$B$S$7EM$VFPi3$EXTD16$VFPS$VFMA$PE$A:L22UL41UL21$X:L11$S22US41US21$IEEE1$IW$USESV6$~STKCKD$USESV7$~SHL$OSPACE$EBA8$MICROLIB$REQ8$PRES8$EABIv2 0x00000000   Number         0  anon$$obj.o ABSOLUTE
    __ARM_use_no_argv                        0x00000000   Number         0  main.o ABSOLUTE
    __cpp_initialize__aeabi_                  - Undefined Weak Reference
    __cxa_finalize                            - Undefined Weak Reference
    __decompress                              - Undefined Weak Reference
    _clock_init                               - Undefined Weak Reference
    _microlib_exit                            - Undefined Weak Reference
    __Vectors_Size                           0x000001d8   Number         0  startup_stm32g431xx.o ABSOLUTE
    __Vectors                                0x08000000   Data           4  startup_stm32g431xx.o(RESET)
    __Vectors_End                            0x080001d8   Data           0  startup_stm32g431xx.o(RESET)
    __main                                   0x080001d9   Thumb Code     0  entry.o(.ARM.Collect$$$$00000000)
    _main_stk                                0x080001d9   Thumb Code     0  entry2.o(.ARM.Collect$$$$00000001)
    _main_scatterload                        0x080001dd   Thumb Code     0  entry5.o(.ARM.Collect$$$$00000004)
    __main_after_scatterload                 0x080001e1   Thumb Code     0  entry5.o(.ARM.Collect$$$$00000004)
    _main_clock                              0x080001e1   Thumb Code     0  entry7b.o(.ARM.Collect$$$$00000008)
    _main_cpp_init                           0x080001e1   Thumb Code     0  entry8b.o(.ARM.Collect$$$$0000000A)
    _main_init                               0x080001e1   Thumb Code     0  entry9a.o(.ARM.Collect$$$$0000000B)
    __rt_final_cpp                           0x080001e9   Thumb Code     0  entry10a.o(.ARM.Collect$$$$0000000D)
    __rt_final_exit                          0x080001e9   Thumb Code     0  entry11a.o(.ARM.Collect$$$$0000000F)
    Reset_Handler                            0x080001ed   Thumb Code     8  startup_stm32g431xx.o(.text)
    COMP1_2_3_IRQHandler                     0x08000207   Thumb Code     0  startup_stm32g431xx.o(.text)
    COMP4_IRQHandler                         0x08000207   Thumb Code     0  startup_stm32g431xx.o(.text)
    CORDIC_IRQHandler                        0x08000207   Thumb Code     0  startup_stm32g431xx.o(.text)
    CRS_IRQHandler                           0x08000207   Thumb Code     0  startup_stm32g431xx.o(.text)
    DMA1_Channel1_IRQHandler                 0x08000207   Thumb Code     0  startup_stm32g431xx.o(.text)
    DMA1_Channel3_IRQHandler                 0x08000207   Thumb Code     0  startup_stm32g431xx.o(.text)
    DMA1_Channel4_IRQHandler                 0x08000207   Thumb Code     0  startup_stm32g431xx.o(.text)
    DMA1_Channel5_IRQHandler                 0x08000207   Thumb Code     0  startup_stm32g431xx.o(.text)
    DMA1_Channel6_IRQHandler                 0x08000207   Thumb Code     0  startup_stm32g431xx.o(.text)
    DMA2_Channel1_IRQHandler                 0x08000207   Thumb Code     0  startup_stm32g431xx.o(.text)
    DMA2_Channel2_IRQHandler                 0x08000207   Thumb Code     0  startup_stm32g431xx.o(.text)
    DMA2_Channel3_IRQHandler                 0x08000207   Thumb Code     0  startup_stm32g431xx.o(.text)
    DMA2_Channel4_IRQHandler                 0x08000207   Thumb Code     0  startup_stm32g431xx.o(.text)
    DMA2_Channel5_IRQHandler                 0x08000207   Thumb Code     0  startup_stm32g431xx.o(.text)
    DMA2_Channel6_IRQHandler                 0x08000207   Thumb Code     0  startup_stm32g431xx.o(.text)
    DMAMUX_OVR_IRQHandler                    0x08000207   Thumb Code     0  startup_stm32g431xx.o(.text)
    EXTI0_IRQHandler                         0x08000207   Thumb Code     0  startup_stm32g431xx.o(.text)
    EXTI15_10_IRQHandler                     0x08000207   Thumb Code     0  startup_stm32g431xx.o(.text)
    EXTI1_IRQHandler                         0x08000207   Thumb Code     0  startup_stm32g431xx.o(.text)
    EXTI2_IRQHandler                         0x08000207   Thumb Code     0  startup_stm32g431xx.o(.text)
    EXTI3_IRQHandler                         0x08000207   Thumb Code     0  startup_stm32g431xx.o(.text)
    EXTI4_IRQHandler                         0x08000207   Thumb Code     0  startup_stm32g431xx.o(.text)
    EXTI9_5_IRQHandler                       0x08000207   Thumb Code     0  startup_stm32g431xx.o(.text)
    FDCAN1_IT1_IRQHandler                    0x08000207   Thumb Code     0  startup_stm32g431xx.o(.text)
    FLASH_IRQHandler                         0x08000207   Thumb Code     0  startup_stm32g431xx.o(.text)
    FMAC_IRQHandler                          0x08000207   Thumb Code     0  startup_stm32g431xx.o(.text)
    FPU_IRQHandler                           0x08000207   Thumb Code     0  startup_stm32g431xx.o(.text)
    I2C1_ER_IRQHandler                       0x08000207   Thumb Code     0  startup_stm32g431xx.o(.text)
    I2C1_EV_IRQHandler                       0x08000207   Thumb Code     0  startup_stm32g431xx.o(.text)
    I2C2_ER_IRQHandler                       0x08000207   Thumb Code     0  startup_stm32g431xx.o(.text)
    I2C2_EV_IRQHandler                       0x08000207   Thumb Code     0  startup_stm32g431xx.o(.text)
    I2C3_ER_IRQHandler                       0x08000207   Thumb Code     0  startup_stm32g431xx.o(.text)
    I2C3_EV_IRQHandler                       0x08000207   Thumb Code     0  startup_stm32g431xx.o(.text)
    LPTIM1_IRQHandler                        0x08000207   Thumb Code     0  startup_stm32g431xx.o(.text)
    LPUART1_IRQHandler                       0x08000207   Thumb Code     0  startup_stm32g431xx.o(.text)
    PVD_PVM_IRQHandler                       0x08000207   Thumb Code     0  startup_stm32g431xx.o(.text)
    RCC_IRQHandler                           0x08000207   Thumb Code     0  startup_stm32g431xx.o(.text)
    RNG_IRQHandler                           0x08000207   Thumb Code     0  startup_stm32g431xx.o(.text)
    RTC_Alarm_IRQHandler                     0x08000207   Thumb Code     0  startup_stm32g431xx.o(.text)
    RTC_TAMP_LSECSS_IRQHandler               0x08000207   Thumb Code     0  startup_stm32g431xx.o(.text)
    RTC_WKUP_IRQHandler                      0x08000207   Thumb Code     0  startup_stm32g431xx.o(.text)
    SAI1_IRQHandler                          0x08000207   Thumb Code     0  startup_stm32g431xx.o(.text)
    SPI1_IRQHandler                          0x08000207   Thumb Code     0  startup_stm32g431xx.o(.text)
    SPI2_IRQHandler                          0x08000207   Thumb Code     0  startup_stm32g431xx.o(.text)
    SPI3_IRQHandler                          0x08000207   Thumb Code     0  startup_stm32g431xx.o(.text)
    TIM1_BRK_TIM15_IRQHandler                0x08000207   Thumb Code     0  startup_stm32g431xx.o(.text)
    TIM1_CC_IRQHandler                       0x08000207   Thumb Code     0  startup_stm32g431xx.o(.text)
    TIM1_TRG_COM_TIM17_IRQHandler            0x08000207   Thumb Code     0  startup_stm32g431xx.o(.text)
    TIM2_IRQHandler                          0x08000207   Thumb Code     0  startup_stm32g431xx.o(.text)
    TIM3_IRQHandler                          0x08000207   Thumb Code     0  startup_stm32g431xx.o(.text)
    TIM4_IRQHandler                          0x08000207   Thumb Code     0  startup_stm32g431xx.o(.text)
    TIM6_DAC_IRQHandler                      0x08000207   Thumb Code     0  startup_stm32g431xx.o(.text)
    TIM7_IRQHandler                          0x08000207   Thumb Code     0  startup_stm32g431xx.o(.text)
    TIM8_BRK_IRQHandler                      0x08000207   Thumb Code     0  startup_stm32g431xx.o(.text)
    TIM8_CC_IRQHandler                       0x08000207   Thumb Code     0  startup_stm32g431xx.o(.text)
    TIM8_TRG_COM_IRQHandler                  0x08000207   Thumb Code     0  startup_stm32g431xx.o(.text)
    TIM8_UP_IRQHandler                       0x08000207   Thumb Code     0  startup_stm32g431xx.o(.text)
    UART4_IRQHandler                         0x08000207   Thumb Code     0  startup_stm32g431xx.o(.text)
    UCPD1_IRQHandler                         0x08000207   Thumb Code     0  startup_stm32g431xx.o(.text)
    USART1_IRQHandler                        0x08000207   Thumb Code     0  startup_stm32g431xx.o(.text)
    USART2_IRQHandler                        0x08000207   Thumb Code     0  startup_stm32g431xx.o(.text)
    USART3_IRQHandler                        0x08000207   Thumb Code     0  startup_stm32g431xx.o(.text)
    USBWakeUp_IRQHandler                     0x08000207   Thumb Code     0  startup_stm32g431xx.o(.text)
    USB_HP_IRQHandler                        0x08000207   Thumb Code     0  startup_stm32g431xx.o(.text)
    USB_LP_IRQHandler                        0x08000207   Thumb Code     0  startup_stm32g431xx.o(.text)
    WWDG_IRQHandler                          0x08000207   Thumb Code     0  startup_stm32g431xx.o(.text)
    __aeabi_memset                           0x08000211   Thumb Code    14  memseta.o(.text)
    __aeabi_memset4                          0x08000211   Thumb Code     0  memseta.o(.text)
    __aeabi_memset8                          0x08000211   Thumb Code     0  memseta.o(.text)
    __aeabi_memclr                           0x0800021f   Thumb Code     4  memseta.o(.text)
    __aeabi_memclr4                          0x0800021f   Thumb Code     0  memseta.o(.text)
    __aeabi_memclr8                          0x0800021f   Thumb Code     0  memseta.o(.text)
    _memset$wrapper                          0x08000223   Thumb Code    18  memseta.o(.text)
    __scatterload                            0x08000235   Thumb Code    28  init.o(.text)
    __scatterload_rt2                        0x08000235   Thumb Code     0  init.o(.text)
    ADC1_2_IRQHandler                        0x08000259   Thumb Code    12  stm32g4xx_it.o(i.ADC1_2_IRQHandler)
    ADC_DMAConvCplt                          0x08000265   Thumb Code   104  stm32g4xx_hal_adc.o(i.ADC_DMAConvCplt)
    ADC_DMAError                             0x080002cd   Thumb Code    26  stm32g4xx_hal_adc.o(i.ADC_DMAError)
    ADC_DMAHalfConvCplt                      0x080002e7   Thumb Code    10  stm32g4xx_hal_adc.o(i.ADC_DMAHalfConvCplt)
    ADC_Enable                               0x080002f1   Thumb Code   100  stm32g4xx_hal_adc.o(i.ADC_Enable)
    BCD_to_float                             0x08000359   Thumb Code    62  ui_can.o(i.BCD_to_float)
    BusFault_Handler                         0x0800039d   Thumb Code     2  stm32g4xx_it.o(i.BusFault_Handler)
    DMA1_Channel2_IRQHandler                 0x080003a1   Thumb Code     6  stm32g4xx_it.o(i.DMA1_Channel2_IRQHandler)
    DebugMon_Handler                         0x0800044f   Thumb Code     2  stm32g4xx_it.o(i.DebugMon_Handler)
    Error_Handler                            0x08000451   Thumb Code     4  main.o(i.Error_Handler)
    FDCAN1_IT0_IRQHandler                    0x08000455   Thumb Code     6  stm32g4xx_it.o(i.FDCAN1_IT0_IRQHandler)
    FOC_CurrController                       0x08000461   Thumb Code     8  foc_tasks.o(i.FOC_CurrController)
    FOC_Ini                                  0x0800046d   Thumb Code    32  foc_tasks.o(i.FOC_Ini)
    HAL_ADCEx_InjectedConfigChannel          0x08000499   Thumb Code  1262  stm32g4xx_hal_adc_ex.o(i.HAL_ADCEx_InjectedConfigChannel)
    HAL_ADCEx_MultiModeConfigChannel         0x080009b1   Thumb Code   204  stm32g4xx_hal_adc_ex.o(i.HAL_ADCEx_MultiModeConfigChannel)
    HAL_ADC_ConfigChannel                    0x08000a85   Thumb Code  1004  stm32g4xx_hal_adc.o(i.HAL_ADC_ConfigChannel)
    HAL_ADC_ConvCpltCallback                 0x08000ea5   Thumb Code   138  mg_grid .o(i.HAL_ADC_ConvCpltCallback)
    HAL_ADC_ConvHalfCpltCallback             0x08000f35   Thumb Code     2  stm32g4xx_hal_adc.o(i.HAL_ADC_ConvHalfCpltCallback)
    HAL_ADC_ErrorCallback                    0x08000f37   Thumb Code     2  stm32g4xx_hal_adc.o(i.HAL_ADC_ErrorCallback)
    HAL_ADC_Init                             0x08000f39   Thumb Code   472  stm32g4xx_hal_adc.o(i.HAL_ADC_Init)
    HAL_ADC_MspInit                          0x08001131   Thumb Code   190  stm32g4xx_hal_msp.o(i.HAL_ADC_MspInit)
    HAL_ADC_Start_DMA                        0x08001205   Thumb Code   214  stm32g4xx_hal_adc.o(i.HAL_ADC_Start_DMA)
    HAL_CORDIC_Init                          0x080012f5   Thumb Code    52  stm32g4xx_hal_cordic.o(i.HAL_CORDIC_Init)
    HAL_CORDIC_MspInit                       0x08001329   Thumb Code    30  stm32g4xx_hal_msp.o(i.HAL_CORDIC_MspInit)
    HAL_DMA_IRQHandler                       0x08001351   Thumb Code   186  stm32g4xx_hal_dma.o(i.HAL_DMA_IRQHandler)
    HAL_DMA_Init                             0x0800140d   Thumb Code   178  stm32g4xx_hal_dma.o(i.HAL_DMA_Init)
    HAL_DMA_Start_IT                         0x080014cd   Thumb Code   140  stm32g4xx_hal_dma.o(i.HAL_DMA_Start_IT)
    HAL_Delay                                0x08001559   Thumb Code    32  stm32g4xx_hal.o(i.HAL_Delay)
    HAL_FDCAN_ActivateNotification           0x0800157d   Thumb Code   224  stm32g4xx_hal_fdcan.o(i.HAL_FDCAN_ActivateNotification)
    HAL_FDCAN_ConfigFilter                   0x0800165d   Thumb Code    92  stm32g4xx_hal_fdcan.o(i.HAL_FDCAN_ConfigFilter)
    HAL_FDCAN_ConfigGlobalFilter             0x080016b9   Thumb Code    54  stm32g4xx_hal_fdcan.o(i.HAL_FDCAN_ConfigGlobalFilter)
    HAL_FDCAN_ErrorCallback                  0x080016ef   Thumb Code     2  stm32g4xx_hal_fdcan.o(i.HAL_FDCAN_ErrorCallback)
    HAL_FDCAN_ErrorStatusCallback            0x080016f1   Thumb Code     2  stm32g4xx_hal_fdcan.o(i.HAL_FDCAN_ErrorStatusCallback)
    HAL_FDCAN_GetRxMessage                   0x080016f5   Thumb Code   234  stm32g4xx_hal_fdcan.o(i.HAL_FDCAN_GetRxMessage)
    HAL_FDCAN_HighPriorityMessageCallback    0x080017e5   Thumb Code     2  stm32g4xx_hal_fdcan.o(i.HAL_FDCAN_HighPriorityMessageCallback)
    HAL_FDCAN_IRQHandler                     0x080017e7   Thumb Code   352  stm32g4xx_hal_fdcan.o(i.HAL_FDCAN_IRQHandler)
    HAL_FDCAN_Init                           0x08001949   Thumb Code   498  stm32g4xx_hal_fdcan.o(i.HAL_FDCAN_Init)
    HAL_FDCAN_MspInit                        0x08001b4d   Thumb Code   104  stm32g4xx_hal_msp.o(i.HAL_FDCAN_MspInit)
    HAL_FDCAN_RxFifo0Callback                0x08001bbd   Thumb Code    78  ui_can.o(i.HAL_FDCAN_RxFifo0Callback)
    HAL_FDCAN_RxFifo1Callback                0x08001c15   Thumb Code     2  stm32g4xx_hal_fdcan.o(i.HAL_FDCAN_RxFifo1Callback)
    HAL_FDCAN_Start                          0x08001c17   Thumb Code    44  stm32g4xx_hal_fdcan.o(i.HAL_FDCAN_Start)
    HAL_FDCAN_TimeoutOccurredCallback        0x08001c43   Thumb Code     2  stm32g4xx_hal_fdcan.o(i.HAL_FDCAN_TimeoutOccurredCallback)
    HAL_FDCAN_TimestampWraparoundCallback    0x08001c45   Thumb Code     2  stm32g4xx_hal_fdcan.o(i.HAL_FDCAN_TimestampWraparoundCallback)
    HAL_FDCAN_TxBufferAbortCallback          0x08001c47   Thumb Code     2  stm32g4xx_hal_fdcan.o(i.HAL_FDCAN_TxBufferAbortCallback)
    HAL_FDCAN_TxBufferCompleteCallback       0x08001c49   Thumb Code     2  stm32g4xx_hal_fdcan.o(i.HAL_FDCAN_TxBufferCompleteCallback)
    HAL_FDCAN_TxEventFifoCallback            0x08001c4b   Thumb Code     2  stm32g4xx_hal_fdcan.o(i.HAL_FDCAN_TxEventFifoCallback)
    HAL_FDCAN_TxFifoEmptyCallback            0x08001c4d   Thumb Code     2  stm32g4xx_hal_fdcan.o(i.HAL_FDCAN_TxFifoEmptyCallback)
    HAL_GPIO_Init                            0x08001c51   Thumb Code   422  stm32g4xx_hal_gpio.o(i.HAL_GPIO_Init)
    HAL_GPIO_TogglePin                       0x08001e19   Thumb Code    16  stm32g4xx_hal_gpio.o(i.HAL_GPIO_TogglePin)
    HAL_GPIO_WritePin                        0x08001e29   Thumb Code    10  stm32g4xx_hal_gpio.o(i.HAL_GPIO_WritePin)
    HAL_GetTick                              0x08001e35   Thumb Code     6  stm32g4xx_hal.o(i.HAL_GetTick)
    HAL_IncTick                              0x08001e41   Thumb Code    12  stm32g4xx_hal.o(i.HAL_IncTick)
    HAL_Init                                 0x08001e51   Thumb Code    30  stm32g4xx_hal.o(i.HAL_Init)
    HAL_InitTick                             0x08001e71   Thumb Code    58  stm32g4xx_hal.o(i.HAL_InitTick)
    HAL_MspInit                              0x08001eb5   Thumb Code    42  stm32g4xx_hal_msp.o(i.HAL_MspInit)
    HAL_NVIC_EnableIRQ                       0x08001ee5   Thumb Code    26  stm32g4xx_hal_cortex.o(i.HAL_NVIC_EnableIRQ)
    HAL_NVIC_SetPriority                     0x08001f01   Thumb Code    60  stm32g4xx_hal_cortex.o(i.HAL_NVIC_SetPriority)
    HAL_NVIC_SetPriorityGrouping             0x08001f41   Thumb Code    26  stm32g4xx_hal_cortex.o(i.HAL_NVIC_SetPriorityGrouping)
    HAL_OPAMP_Init                           0x08001f65   Thumb Code   236  stm32g4xx_hal_opamp.o(i.HAL_OPAMP_Init)
    HAL_OPAMP_MspInit                        0x08002059   Thumb Code   104  stm32g4xx_hal_msp.o(i.HAL_OPAMP_MspInit)
    HAL_OPAMP_Start                          0x080020cd   Thumb Code    44  stm32g4xx_hal_opamp.o(i.HAL_OPAMP_Start)
    HAL_PWREx_ControlVoltageScaling          0x080020f9   Thumb Code   174  stm32g4xx_hal_pwr_ex.o(i.HAL_PWREx_ControlVoltageScaling)
    HAL_PWREx_DisableUCPDDeadBattery         0x080021b5   Thumb Code    12  stm32g4xx_hal_pwr_ex.o(i.HAL_PWREx_DisableUCPDDeadBattery)
    HAL_RCCEx_PeriphCLKConfig                0x080021c5   Thumb Code   638  stm32g4xx_hal_rcc_ex.o(i.HAL_RCCEx_PeriphCLKConfig)
    HAL_RCC_ClockConfig                      0x0800244d   Thumb Code   444  stm32g4xx_hal_rcc.o(i.HAL_RCC_ClockConfig)
    HAL_RCC_GetSysClockFreq                  0x08002629   Thumb Code    98  stm32g4xx_hal_rcc.o(i.HAL_RCC_GetSysClockFreq)
    HAL_RCC_OscConfig                        0x08002695   Thumb Code  1036  stm32g4xx_hal_rcc.o(i.HAL_RCC_OscConfig)
    HAL_SYSTICK_Config                       0x08002aa1   Thumb Code    40  stm32g4xx_hal_cortex.o(i.HAL_SYSTICK_Config)
    HAL_TIMEx_ConfigBreakDeadTime            0x08002ac9   Thumb Code   164  stm32g4xx_hal_tim_ex.o(i.HAL_TIMEx_ConfigBreakDeadTime)
    HAL_TIMEx_MasterConfigSynchronization    0x08002b75   Thumb Code   132  stm32g4xx_hal_tim_ex.o(i.HAL_TIMEx_MasterConfigSynchronization)
    HAL_TIM_Base_Init                        0x08002c11   Thumb Code    98  stm32g4xx_hal_tim.o(i.HAL_TIM_Base_Init)
    HAL_TIM_Base_MspInit                     0x08002c75   Thumb Code   144  stm32g4xx_hal_msp.o(i.HAL_TIM_Base_MspInit)
    HAL_TIM_Base_Start                       0x08002d15   Thumb Code    84  stm32g4xx_hal_tim.o(i.HAL_TIM_Base_Start)
    HAL_TIM_ConfigClockSource                0x08002d81   Thumb Code   240  stm32g4xx_hal_tim.o(i.HAL_TIM_ConfigClockSource)
    HAL_TIM_MspPostInit                      0x08002e79   Thumb Code    74  stm32g4xx_hal_msp.o(i.HAL_TIM_MspPostInit)
    HAL_TIM_OC_ConfigChannel                 0x08002ecd   Thumb Code   104  stm32g4xx_hal_tim.o(i.HAL_TIM_OC_ConfigChannel)
    HAL_TIM_OC_Init                          0x08002f35   Thumb Code    98  stm32g4xx_hal_tim.o(i.HAL_TIM_OC_Init)
    HAL_TIM_OC_MspInit                       0x08002f97   Thumb Code     2  stm32g4xx_hal_tim.o(i.HAL_TIM_OC_MspInit)
    HAL_TIM_PWM_ConfigChannel                0x08002f99   Thumb Code   286  stm32g4xx_hal_tim.o(i.HAL_TIM_PWM_ConfigChannel)
    HAL_TIM_PWM_Init                         0x080030b7   Thumb Code    98  stm32g4xx_hal_tim.o(i.HAL_TIM_PWM_Init)
    HAL_TIM_PWM_MspInit                      0x08003119   Thumb Code     2  stm32g4xx_hal_tim.o(i.HAL_TIM_PWM_MspInit)
    HardFault_Handler                        0x0800311b   Thumb Code     2  stm32g4xx_it.o(i.HardFault_Handler)
    MemManage_Handler                        0x080037d5   Thumb Code     2  stm32g4xx_it.o(i.MemManage_Handler)
    Mg_Ini                                   0x080037d9   Thumb Code    10  mg_grid .o(i.Mg_Ini)
    NMI_Handler                              0x080037ed   Thumb Code     2  stm32g4xx_it.o(i.NMI_Handler)
    PID_Controller                           0x080037ef   Thumb Code    60  pid_regulator.o(i.PID_Controller)
    PID_HandleInit                           0x0800382b   Thumb Code    20  pid_regulator.o(i.PID_HandleInit)
    PI_Controller                            0x08003841   Thumb Code   122  pid_regulator.o(i.PI_Controller)
    PWMC_Ini                                 0x080038c1   Thumb Code    56  foc_svpwm.o(i.PWMC_Ini)
    PWMC_SetPhaseVoltage                     0x080038f9   Thumb Code   358  foc_svpwm.o(i.PWMC_SetPhaseVoltage)
    PendSV_Handler                           0x08003a65   Thumb Code     2  stm32g4xx_it.o(i.PendSV_Handler)
    R1_Init                                  0x08003c69   Thumb Code   354  foc_svpwm.o(i.R1_Init)
    R1_SwitchOnPWM                           0x08003e01   Thumb Code   110  foc_svpwm.o(i.R1_SwitchOnPWM)
    R1_TIMx_UP_IRQHandler                    0x08003e79   Thumb Code   110  foc_svpwm.o(i.R1_TIMx_UP_IRQHandler)
    SVC_Handler                              0x08003ef9   Thumb Code     2  stm32g4xx_it.o(i.SVC_Handler)
    SysTick_Handler                          0x08003efb   Thumb Code    18  stm32g4xx_it.o(i.SysTick_Handler)
    SystemClock_Config                       0x08003f0d   Thumb Code   136  main.o(i.SystemClock_Config)
    SystemInit                               0x08003f95   Thumb Code    22  system_stm32g4xx.o(i.SystemInit)
    TC_ExecRamp                              0x08003fb1   Thumb Code    24  trajectory_ctrl.o(i.TC_ExecRamp)
    TC_FollowExecution                       0x08003fcd   Thumb Code    36  trajectory_ctrl.o(i.TC_FollowExecution)
    TC_GetCurrentPosition                    0x08003ff5   Thumb Code    20  trajectory_ctrl.o(i.TC_GetCurrentPosition)
    TC_IncTick                               0x08004011   Thumb Code    10  trajectory_ctrl.o(i.TC_IncTick)
    TC_Init                                  0x08004021   Thumb Code   124  trajectory_ctrl.o(i.TC_Init)
    TC_MoveCommand                           0x080040ad   Thumb Code   210  trajectory_ctrl.o(i.TC_MoveCommand)
    TC_MoveExecution                         0x0800418d   Thumb Code   250  trajectory_ctrl.o(i.TC_MoveExecution)
    TC_PositionRegulation                    0x08004291   Thumb Code    88  trajectory_ctrl.o(i.TC_PositionRegulation)
    TIM1_UP_TIM16_IRQHandler                 0x080042fd   Thumb Code    12  stm32g4xx_it.o(i.TIM1_UP_TIM16_IRQHandler)
    TIM_Base_SetConfig                       0x0800430d   Thumb Code   146  stm32g4xx_hal_tim.o(i.TIM_Base_SetConfig)
    TIM_ETR_SetConfig                        0x080043bd   Thumb Code    20  stm32g4xx_hal_tim.o(i.TIM_ETR_SetConfig)
    TIM_OC2_SetConfig                        0x08004481   Thumb Code   120  stm32g4xx_hal_tim.o(i.TIM_OC2_SetConfig)
    UsageFault_Handler                       0x08004757   Thumb Code     2  stm32g4xx_it.o(i.UsageFault_Handler)
    __FastIntAtan2__                         0x08004759   Thumb Code   198  mg_grid .o(i.__FastIntAtan2__)
    __scatterload_copy                       0x08004859   Thumb Code    14  handlers.o(i.__scatterload_copy)
    __scatterload_null                       0x08004867   Thumb Code     2  handlers.o(i.__scatterload_null)
    __scatterload_zeroinit                   0x08004869   Thumb Code    14  handlers.o(i.__scatterload_zeroinit)
    main                                     0x08004879   Thumb Code   160  main.o(i.main)
    AHBPrescTable                            0x08004938   Data          16  system_stm32g4xx.o(.constdata)
    Region$$Table$$Base                      0x080049e0   Number         0  anon$$obj.o(Region$$Table)
    Region$$Table$$Limit                     0x08004a00   Number         0  anon$$obj.o(Region$$Table)
    uwTickPrio                               0x20000004   Data           4  stm32g4xx_hal.o(.data)
    uwTickFreq                               0x20000008   Data           4  stm32g4xx_hal.o(.data)
    uwTick                                   0x2000000c   Data           4  stm32g4xx_hal.o(.data)
    SystemCoreClock                          0x20000010   Data           4  system_stm32g4xx.o(.data)
    PWMC_R1_Handle                           0x20000014   Data          24  foc_svpwm.o(.data)
    Valphabeta                               0x2000002c   Data           4  foc_tasks.o(.data)
    Magnetic_handle                          0x20000034   Data          32  mg_grid .o(.data)
    PID_Handle_Iq                            0x20000054   Data          44  pid_regulator.o(.data)
    PID_Handle_Id                            0x20000080   Data          44  pid_regulator.o(.data)
    PID_PosParams                            0x200000ac   Data          44  pid_regulator.o(.data)
    fMinimumStepDuration                     0x200000d8   Data           4  trajectory_ctrl.o(.data)
    wMecAngleRef                             0x200000dc   Data           4  trajectory_ctrl.o(.data)
    wMecAngle                                0x200000e0   Data           4  trajectory_ctrl.o(.data)
    wError                                   0x200000e4   Data           4  trajectory_ctrl.o(.data)
    hTorqueRef_Pos                           0x200000e8   Data           4  trajectory_ctrl.o(.data)
    test1                                    0x200000ec   Data           4  ui_can.o(.data)
    test2                                    0x200000f0   Data           4  ui_can.o(.data)
    TxData                                   0x200000f4   Data           8  ui_can.o(.data)
    RxData                                   0x200000fc   Data           8  ui_can.o(.data)
    hcordic                                  0x20000104   Data          40  main.o(.bss)
    hadc1                                    0x2000012c   Data         108  main.o(.bss)
    hadc2                                    0x20000198   Data         108  main.o(.bss)
    hfdcan1                                  0x20000204   Data         100  main.o(.bss)
    hopamp2                                  0x20000268   Data          60  main.o(.bss)
    hopamp3                                  0x200002a4   Data          60  main.o(.bss)
    htim1                                    0x200002e0   Data          76  main.o(.bss)
    htim2                                    0x2000032c   Data          76  main.o(.bss)
    hdma_adc2                                0x20000378   Data          96  main.o(.bss)
    hdma_tim1_ch4                            0x200003d8   Data          96  main.o(.bss)
    PWMC_Handle                              0x20000438   Data          20  foc_svpwm.o(.bss)
    PosCtrl_Handle                           0x2000044c   Data         104  trajectory_ctrl.o(.bss)
    FDCAN_TxHeader                           0x200004b4   Data          36  ui_can.o(.bss)
    FDCAN_RxHeader                           0x200004d8   Data          40  ui_can.o(.bss)
    __initial_sp                             0x20000900   Data           0  startup_stm32g431xx.o(STACK)



==============================================================================

Memory Map of the image

  Image Entry point : 0x080001d9

  Load Region LR_IROM1 (Base: 0x08000000, Size: 0x00004b04, Max: 0x00010000, ABSOLUTE)

    Execution Region ER_IROM1 (Exec base: 0x08000000, Load base: 0x08000000, Size: 0x00004a00, Max: 0x00010000, ABSOLUTE)

    Exec Addr    Load Addr    Size         Type   Attr      Idx    E Section Name        Object

    0x08000000   0x08000000   0x000001d8   Data   RO            3    RESET               startup_stm32g431xx.o
    0x080001d8   0x080001d8   0x00000000   Code   RO         4820  * .ARM.Collect$$$$00000000  mc_w.l(entry.o)
    0x080001d8   0x080001d8   0x00000004   Code   RO         4825    .ARM.Collect$$$$00000001  mc_w.l(entry2.o)
    0x080001dc   0x080001dc   0x00000004   Code   RO         4828    .ARM.Collect$$$$00000004  mc_w.l(entry5.o)
    0x080001e0   0x080001e0   0x00000000   Code   RO         4830    .ARM.Collect$$$$00000008  mc_w.l(entry7b.o)
    0x080001e0   0x080001e0   0x00000000   Code   RO         4832    .ARM.Collect$$$$0000000A  mc_w.l(entry8b.o)
    0x080001e0   0x080001e0   0x00000008   Code   RO         4833    .ARM.Collect$$$$0000000B  mc_w.l(entry9a.o)
    0x080001e8   0x080001e8   0x00000000   Code   RO         4835    .ARM.Collect$$$$0000000D  mc_w.l(entry10a.o)
    0x080001e8   0x080001e8   0x00000000   Code   RO         4837    .ARM.Collect$$$$0000000F  mc_w.l(entry11a.o)
    0x080001e8   0x080001e8   0x00000004   Code   RO         4826    .ARM.Collect$$$$00002712  mc_w.l(entry2.o)
    0x080001ec   0x080001ec   0x00000024   Code   RO            4    .text               startup_stm32g431xx.o
    0x08000210   0x08000210   0x00000024   Code   RO         4823    .text               mc_w.l(memseta.o)
    0x08000234   0x08000234   0x00000024   Code   RO         4839    .text               mc_w.l(init.o)
    0x08000258   0x08000258   0x0000000c   Code   RO          231    i.ADC1_2_IRQHandler  stm32g4xx_it.o
    0x08000264   0x08000264   0x00000068   Code   RO          437    i.ADC_DMAConvCplt   stm32g4xx_hal_adc.o
    0x080002cc   0x080002cc   0x0000001a   Code   RO          438    i.ADC_DMAError      stm32g4xx_hal_adc.o
    0x080002e6   0x080002e6   0x0000000a   Code   RO          439    i.ADC_DMAHalfConvCplt  stm32g4xx_hal_adc.o
    0x080002f0   0x080002f0   0x00000068   Code   RO          441    i.ADC_Enable        stm32g4xx_hal_adc.o
    0x08000358   0x08000358   0x00000044   Code   RO         4782    i.BCD_to_float      ui_can.o
    0x0800039c   0x0800039c   0x00000002   Code   RO          232    i.BusFault_Handler  stm32g4xx_it.o
    0x0800039e   0x0800039e   0x00000002   PAD
    0x080003a0   0x080003a0   0x0000000c   Code   RO          233    i.DMA1_Channel2_IRQHandler  stm32g4xx_it.o
    0x080003ac   0x080003ac   0x00000040   Code   RO         1716    i.DMA_CalcDMAMUXChannelBaseAndMask  stm32g4xx_hal_dma.o
    0x080003ec   0x080003ec   0x00000024   Code   RO         1717    i.DMA_CalcDMAMUXRequestGenBaseAndMask  stm32g4xx_hal_dma.o
    0x08000410   0x08000410   0x0000003e   Code   RO         1718    i.DMA_SetConfig     stm32g4xx_hal_dma.o
    0x0800044e   0x0800044e   0x00000002   Code   RO          234    i.DebugMon_Handler  stm32g4xx_it.o
    0x08000450   0x08000450   0x00000004   Code   RO           13    i.Error_Handler     main.o
    0x08000454   0x08000454   0x0000000c   Code   RO          235    i.FDCAN1_IT0_IRQHandler  stm32g4xx_it.o
    0x08000460   0x08000460   0x0000000c   Code   RO         4294    i.FOC_CurrController  foc_tasks.o
    0x0800046c   0x0800046c   0x0000002c   Code   RO         4267    i.FOC_Ini           foc_tasks.o
    0x08000498   0x08000498   0x00000518   Code   RO          680    i.HAL_ADCEx_InjectedConfigChannel  stm32g4xx_hal_adc_ex.o
    0x080009b0   0x080009b0   0x000000d4   Code   RO          691    i.HAL_ADCEx_MultiModeConfigChannel  stm32g4xx_hal_adc_ex.o
    0x08000a84   0x08000a84   0x00000420   Code   RO          443    i.HAL_ADC_ConfigChannel  stm32g4xx_hal_adc.o
    0x08000ea4   0x08000ea4   0x00000090   Code   RO         4435    i.HAL_ADC_ConvCpltCallback  mg_grid .o
    0x08000f34   0x08000f34   0x00000002   Code   RO          445    i.HAL_ADC_ConvHalfCpltCallback  stm32g4xx_hal_adc.o
    0x08000f36   0x08000f36   0x00000002   Code   RO          447    i.HAL_ADC_ErrorCallback  stm32g4xx_hal_adc.o
    0x08000f38   0x08000f38   0x000001f8   Code   RO          452    i.HAL_ADC_Init      stm32g4xx_hal_adc.o
    0x08001130   0x08001130   0x000000d4   Code   RO          344    i.HAL_ADC_MspInit   stm32g4xx_hal_msp.o
    0x08001204   0x08001204   0x000000f0   Code   RO          460    i.HAL_ADC_Start_DMA  stm32g4xx_hal_adc.o
    0x080012f4   0x080012f4   0x00000034   Code   RO         4012    i.HAL_CORDIC_Init   stm32g4xx_hal_cordic.o
    0x08001328   0x08001328   0x00000028   Code   RO          346    i.HAL_CORDIC_MspInit  stm32g4xx_hal_msp.o
    0x08001350   0x08001350   0x000000ba   Code   RO         1724    i.HAL_DMA_IRQHandler  stm32g4xx_hal_dma.o
    0x0800140a   0x0800140a   0x00000002   PAD
    0x0800140c   0x0800140c   0x000000c0   Code   RO         1725    i.HAL_DMA_Init      stm32g4xx_hal_dma.o
    0x080014cc   0x080014cc   0x0000008c   Code   RO         1729    i.HAL_DMA_Start_IT  stm32g4xx_hal_dma.o
    0x08001558   0x08001558   0x00000024   Code   RO          890    i.HAL_Delay         stm32g4xx_hal.o
    0x0800157c   0x0800157c   0x000000e0   Code   RO         2360    i.HAL_FDCAN_ActivateNotification  stm32g4xx_hal_fdcan.o
    0x0800165c   0x0800165c   0x0000005c   Code   RO         2363    i.HAL_FDCAN_ConfigFilter  stm32g4xx_hal_fdcan.o
    0x080016b8   0x080016b8   0x00000036   Code   RO         2364    i.HAL_FDCAN_ConfigGlobalFilter  stm32g4xx_hal_fdcan.o
    0x080016ee   0x080016ee   0x00000002   Code   RO         2384    i.HAL_FDCAN_ErrorCallback  stm32g4xx_hal_fdcan.o
    0x080016f0   0x080016f0   0x00000002   Code   RO         2385    i.HAL_FDCAN_ErrorStatusCallback  stm32g4xx_hal_fdcan.o
    0x080016f2   0x080016f2   0x00000002   PAD
    0x080016f4   0x080016f4   0x000000f0   Code   RO         2394    i.HAL_FDCAN_GetRxMessage  stm32g4xx_hal_fdcan.o
    0x080017e4   0x080017e4   0x00000002   Code   RO         2400    i.HAL_FDCAN_HighPriorityMessageCallback  stm32g4xx_hal_fdcan.o
    0x080017e6   0x080017e6   0x00000160   Code   RO         2401    i.HAL_FDCAN_IRQHandler  stm32g4xx_hal_fdcan.o
    0x08001946   0x08001946   0x00000002   PAD
    0x08001948   0x08001948   0x00000204   Code   RO         2402    i.HAL_FDCAN_Init    stm32g4xx_hal_fdcan.o
    0x08001b4c   0x08001b4c   0x00000070   Code   RO          348    i.HAL_FDCAN_MspInit  stm32g4xx_hal_msp.o
    0x08001bbc   0x08001bbc   0x00000058   Code   RO         4783    i.HAL_FDCAN_RxFifo0Callback  ui_can.o
    0x08001c14   0x08001c14   0x00000002   Code   RO         2410    i.HAL_FDCAN_RxFifo1Callback  stm32g4xx_hal_fdcan.o
    0x08001c16   0x08001c16   0x0000002c   Code   RO         2411    i.HAL_FDCAN_Start   stm32g4xx_hal_fdcan.o
    0x08001c42   0x08001c42   0x00000002   Code   RO         2413    i.HAL_FDCAN_TimeoutOccurredCallback  stm32g4xx_hal_fdcan.o
    0x08001c44   0x08001c44   0x00000002   Code   RO         2414    i.HAL_FDCAN_TimestampWraparoundCallback  stm32g4xx_hal_fdcan.o
    0x08001c46   0x08001c46   0x00000002   Code   RO         2415    i.HAL_FDCAN_TxBufferAbortCallback  stm32g4xx_hal_fdcan.o
    0x08001c48   0x08001c48   0x00000002   Code   RO         2416    i.HAL_FDCAN_TxBufferCompleteCallback  stm32g4xx_hal_fdcan.o
    0x08001c4a   0x08001c4a   0x00000002   Code   RO         2417    i.HAL_FDCAN_TxEventFifoCallback  stm32g4xx_hal_fdcan.o
    0x08001c4c   0x08001c4c   0x00000002   Code   RO         2418    i.HAL_FDCAN_TxFifoEmptyCallback  stm32g4xx_hal_fdcan.o
    0x08001c4e   0x08001c4e   0x00000002   PAD
    0x08001c50   0x08001c50   0x000001c8   Code   RO         1581    i.HAL_GPIO_Init     stm32g4xx_hal_gpio.o
    0x08001e18   0x08001e18   0x00000010   Code   RO         1584    i.HAL_GPIO_TogglePin  stm32g4xx_hal_gpio.o
    0x08001e28   0x08001e28   0x0000000a   Code   RO         1585    i.HAL_GPIO_WritePin  stm32g4xx_hal_gpio.o
    0x08001e32   0x08001e32   0x00000002   PAD
    0x08001e34   0x08001e34   0x0000000c   Code   RO          894    i.HAL_GetTick       stm32g4xx_hal.o
    0x08001e40   0x08001e40   0x00000010   Code   RO          897    i.HAL_IncTick       stm32g4xx_hal.o
    0x08001e50   0x08001e50   0x0000001e   Code   RO          898    i.HAL_Init          stm32g4xx_hal.o
    0x08001e6e   0x08001e6e   0x00000002   PAD
    0x08001e70   0x08001e70   0x00000044   Code   RO          899    i.HAL_InitTick      stm32g4xx_hal.o
    0x08001eb4   0x08001eb4   0x00000030   Code   RO          349    i.HAL_MspInit       stm32g4xx_hal_msp.o
    0x08001ee4   0x08001ee4   0x0000001a   Code   RO         2228    i.HAL_NVIC_EnableIRQ  stm32g4xx_hal_cortex.o
    0x08001efe   0x08001efe   0x00000002   PAD
    0x08001f00   0x08001f00   0x00000040   Code   RO         2234    i.HAL_NVIC_SetPriority  stm32g4xx_hal_cortex.o
    0x08001f40   0x08001f40   0x00000024   Code   RO         2235    i.HAL_NVIC_SetPriorityGrouping  stm32g4xx_hal_cortex.o
    0x08001f64   0x08001f64   0x000000f4   Code   RO         2746    i.HAL_OPAMP_Init    stm32g4xx_hal_opamp.o
    0x08002058   0x08002058   0x00000074   Code   RO          351    i.HAL_OPAMP_MspInit  stm32g4xx_hal_msp.o
    0x080020cc   0x080020cc   0x0000002c   Code   RO         2752    i.HAL_OPAMP_Start   stm32g4xx_hal_opamp.o
    0x080020f8   0x080020f8   0x000000bc   Code   RO         1984    i.HAL_PWREx_ControlVoltageScaling  stm32g4xx_hal_pwr_ex.o
    0x080021b4   0x080021b4   0x00000010   Code   RO         1996    i.HAL_PWREx_DisableUCPDDeadBattery  stm32g4xx_hal_pwr_ex.o
    0x080021c4   0x080021c4   0x00000288   Code   RO         1243    i.HAL_RCCEx_PeriphCLKConfig  stm32g4xx_hal_rcc_ex.o
    0x0800244c   0x0800244c   0x000001dc   Code   RO         1118    i.HAL_RCC_ClockConfig  stm32g4xx_hal_rcc.o
    0x08002628   0x08002628   0x0000006c   Code   RO         1128    i.HAL_RCC_GetSysClockFreq  stm32g4xx_hal_rcc.o
    0x08002694   0x08002694   0x0000040c   Code   RO         1131    i.HAL_RCC_OscConfig  stm32g4xx_hal_rcc.o
    0x08002aa0   0x08002aa0   0x00000028   Code   RO         2239    i.HAL_SYSTICK_Config  stm32g4xx_hal_cortex.o
    0x08002ac8   0x08002ac8   0x000000ac   Code   RO         3572    i.HAL_TIMEx_ConfigBreakDeadTime  stm32g4xx_hal_tim_ex.o
    0x08002b74   0x08002b74   0x0000009c   Code   RO         3609    i.HAL_TIMEx_MasterConfigSynchronization  stm32g4xx_hal_tim_ex.o
    0x08002c10   0x08002c10   0x00000062   Code   RO         2853    i.HAL_TIM_Base_Init  stm32g4xx_hal_tim.o
    0x08002c72   0x08002c72   0x00000002   PAD
    0x08002c74   0x08002c74   0x000000a0   Code   RO          353    i.HAL_TIM_Base_MspInit  stm32g4xx_hal_msp.o
    0x08002d14   0x08002d14   0x0000006c   Code   RO         2856    i.HAL_TIM_Base_Start  stm32g4xx_hal_tim.o
    0x08002d80   0x08002d80   0x000000f8   Code   RO         2862    i.HAL_TIM_ConfigClockSource  stm32g4xx_hal_tim.o
    0x08002e78   0x08002e78   0x00000054   Code   RO          354    i.HAL_TIM_MspPostInit  stm32g4xx_hal_msp.o
    0x08002ecc   0x08002ecc   0x00000068   Code   RO         2902    i.HAL_TIM_OC_ConfigChannel  stm32g4xx_hal_tim.o
    0x08002f34   0x08002f34   0x00000062   Code   RO         2906    i.HAL_TIM_OC_Init   stm32g4xx_hal_tim.o
    0x08002f96   0x08002f96   0x00000002   Code   RO         2908    i.HAL_TIM_OC_MspInit  stm32g4xx_hal_tim.o
    0x08002f98   0x08002f98   0x0000011e   Code   RO         2925    i.HAL_TIM_PWM_ConfigChannel  stm32g4xx_hal_tim.o
    0x080030b6   0x080030b6   0x00000062   Code   RO         2928    i.HAL_TIM_PWM_Init  stm32g4xx_hal_tim.o
    0x08003118   0x08003118   0x00000002   Code   RO         2930    i.HAL_TIM_PWM_MspInit  stm32g4xx_hal_tim.o
    0x0800311a   0x0800311a   0x00000002   Code   RO          236    i.HardFault_Handler  stm32g4xx_it.o
    0x0800311c   0x0800311c   0x0000000c   Code   RO          466    i.LL_ADC_GetOffsetChannel  stm32g4xx_hal_adc.o
    0x08003128   0x08003128   0x0000000c   Code   RO          699    i.LL_ADC_GetOffsetChannel  stm32g4xx_hal_adc_ex.o
    0x08003134   0x08003134   0x00000008   Code   RO          467    i.LL_ADC_INJ_IsConversionOngoing  stm32g4xx_hal_adc.o
    0x0800313c   0x0800313c   0x00000008   Code   RO          700    i.LL_ADC_INJ_IsConversionOngoing  stm32g4xx_hal_adc_ex.o
    0x08003144   0x08003144   0x00000008   Code   RO          468    i.LL_ADC_REG_IsConversionOngoing  stm32g4xx_hal_adc.o
    0x0800314c   0x0800314c   0x00000008   Code   RO          701    i.LL_ADC_REG_IsConversionOngoing  stm32g4xx_hal_adc_ex.o
    0x08003154   0x08003154   0x00000010   Code   RO          469    i.LL_ADC_REG_IsTriggerSourceSWStart  stm32g4xx_hal_adc.o
    0x08003164   0x08003164   0x0000001e   Code   RO          471    i.LL_ADC_SetChannelSamplingTime  stm32g4xx_hal_adc.o
    0x08003182   0x08003182   0x0000001e   Code   RO          702    i.LL_ADC_SetChannelSamplingTime  stm32g4xx_hal_adc_ex.o
    0x080031a0   0x080031a0   0x00000010   Code   RO          472    i.LL_ADC_SetOffsetState  stm32g4xx_hal_adc.o
    0x080031b0   0x080031b0   0x00000010   Code   RO          703    i.LL_ADC_SetOffsetState  stm32g4xx_hal_adc_ex.o
    0x080031c0   0x080031c0   0x00000012   Code   RO         4161    i.LL_GPIO_LockPin   foc_svpwm.o
    0x080031d2   0x080031d2   0x00000002   PAD
    0x080031d4   0x080031d4   0x00000074   Code   RO         4162    i.LL_TIM_OC_DisablePreload  foc_svpwm.o
    0x08003248   0x08003248   0x00000074   Code   RO         4163    i.LL_TIM_OC_EnablePreload  foc_svpwm.o
    0x080032bc   0x080032bc   0x000000c4   Code   RO           14    i.MX_ADC1_Init      main.o
    0x08003380   0x08003380   0x000000a0   Code   RO           15    i.MX_ADC2_Init      main.o
    0x08003420   0x08003420   0x000000c4   Code   RO           16    i.MX_FDCAN1_Init    main.o
    0x080034e4   0x080034e4   0x000000b4   Code   RO           17    i.MX_GPIO_Init      main.o
    0x08003598   0x08003598   0x00000040   Code   RO           18    i.MX_OPAMP2_Init    main.o
    0x080035d8   0x080035d8   0x00000040   Code   RO           19    i.MX_OPAMP3_Init    main.o
    0x08003618   0x08003618   0x00000150   Code   RO           20    i.MX_TIM1_Init      main.o
    0x08003768   0x08003768   0x0000006c   Code   RO           21    i.MX_TIM2_Init      main.o
    0x080037d4   0x080037d4   0x00000002   Code   RO          237    i.MemManage_Handler  stm32g4xx_it.o
    0x080037d6   0x080037d6   0x00000002   PAD
    0x080037d8   0x080037d8   0x00000014   Code   RO         4436    i.Mg_Ini            mg_grid .o
    0x080037ec   0x080037ec   0x00000002   Code   RO          238    i.NMI_Handler       stm32g4xx_it.o
    0x080037ee   0x080037ee   0x0000003c   Code   RO         4536    i.PID_Controller    pid_regulator.o
    0x0800382a   0x0800382a   0x00000014   Code   RO         4545    i.PID_HandleInit    pid_regulator.o
    0x0800383e   0x0800383e   0x00000002   PAD
    0x08003840   0x08003840   0x00000080   Code   RO         4558    i.PI_Controller     pid_regulator.o
    0x080038c0   0x080038c0   0x00000038   Code   RO         4164    i.PWMC_Ini          foc_svpwm.o
    0x080038f8   0x080038f8   0x0000016c   Code   RO         4165    i.PWMC_SetPhaseVoltage  foc_svpwm.o
    0x08003a64   0x08003a64   0x00000002   Code   RO          239    i.PendSV_Handler    stm32g4xx_it.o
    0x08003a66   0x08003a66   0x00000002   PAD
    0x08003a68   0x08003a68   0x00000200   Code   RO         4166    i.R1_CalcDutyCycles  foc_svpwm.o
    0x08003c68   0x08003c68   0x00000198   Code   RO         4168    i.R1_Init           foc_svpwm.o
    0x08003e00   0x08003e00   0x00000078   Code   RO         4170    i.R1_SwitchOnPWM    foc_svpwm.o
    0x08003e78   0x08003e78   0x00000080   Code   RO         4171    i.R1_TIMx_UP_IRQHandler  foc_svpwm.o
    0x08003ef8   0x08003ef8   0x00000002   Code   RO          240    i.SVC_Handler       stm32g4xx_it.o
    0x08003efa   0x08003efa   0x00000012   Code   RO          241    i.SysTick_Handler   stm32g4xx_it.o
    0x08003f0c   0x08003f0c   0x00000088   Code   RO           22    i.SystemClock_Config  main.o
    0x08003f94   0x08003f94   0x0000001c   Code   RO         4124    i.SystemInit        system_stm32g4xx.o
    0x08003fb0   0x08003fb0   0x0000001c   Code   RO         4699    i.TC_ExecRamp       trajectory_ctrl.o
    0x08003fcc   0x08003fcc   0x00000028   Code   RO         4701    i.TC_FollowExecution  trajectory_ctrl.o
    0x08003ff4   0x08003ff4   0x0000001c   Code   RO         4702    i.TC_GetCurrentPosition  trajectory_ctrl.o
    0x08004010   0x08004010   0x00000010   Code   RO         4703    i.TC_IncTick        trajectory_ctrl.o
    0x08004020   0x08004020   0x0000008c   Code   RO         4704    i.TC_Init           trajectory_ctrl.o
    0x080040ac   0x080040ac   0x000000e0   Code   RO         4705    i.TC_MoveCommand    trajectory_ctrl.o
    0x0800418c   0x0800418c   0x00000104   Code   RO         4706    i.TC_MoveExecution  trajectory_ctrl.o
    0x08004290   0x08004290   0x0000006c   Code   RO         4707    i.TC_PositionRegulation  trajectory_ctrl.o
    0x080042fc   0x080042fc   0x00000010   Code   RO          242    i.TIM1_UP_TIM16_IRQHandler  stm32g4xx_it.o
    0x0800430c   0x0800430c   0x000000b0   Code   RO         2946    i.TIM_Base_SetConfig  stm32g4xx_hal_tim.o
    0x080043bc   0x080043bc   0x00000014   Code   RO         2957    i.TIM_ETR_SetConfig  stm32g4xx_hal_tim.o
    0x080043d0   0x080043d0   0x00000014   Code   RO         2958    i.TIM_ITRx_SetConfig  stm32g4xx_hal_tim.o
    0x080043e4   0x080043e4   0x0000009c   Code   RO         2959    i.TIM_OC1_SetConfig  stm32g4xx_hal_tim.o
    0x08004480   0x08004480   0x00000090   Code   RO         2960    i.TIM_OC2_SetConfig  stm32g4xx_hal_tim.o
    0x08004510   0x08004510   0x00000090   Code   RO         2961    i.TIM_OC3_SetConfig  stm32g4xx_hal_tim.o
    0x080045a0   0x080045a0   0x00000090   Code   RO         2962    i.TIM_OC4_SetConfig  stm32g4xx_hal_tim.o
    0x08004630   0x08004630   0x00000070   Code   RO         2963    i.TIM_OC5_SetConfig  stm32g4xx_hal_tim.o
    0x080046a0   0x080046a0   0x00000070   Code   RO         2964    i.TIM_OC6_SetConfig  stm32g4xx_hal_tim.o
    0x08004710   0x08004710   0x00000022   Code   RO         2966    i.TIM_TI1_ConfigInputStage  stm32g4xx_hal_tim.o
    0x08004732   0x08004732   0x00000024   Code   RO         2968    i.TIM_TI2_ConfigInputStage  stm32g4xx_hal_tim.o
    0x08004756   0x08004756   0x00000002   Code   RO          243    i.UsageFault_Handler  stm32g4xx_it.o
    0x08004758   0x08004758   0x000000e0   Code   RO         4437    i.__FastIntAtan2__  mg_grid .o
    0x08004838   0x08004838   0x00000020   Code   RO         2241    i.__NVIC_SetPriority  stm32g4xx_hal_cortex.o
    0x08004858   0x08004858   0x0000000e   Code   RO         4843    i.__scatterload_copy  mc_w.l(handlers.o)
    0x08004866   0x08004866   0x00000002   Code   RO         4844    i.__scatterload_null  mc_w.l(handlers.o)
    0x08004868   0x08004868   0x0000000e   Code   RO         4845    i.__scatterload_zeroinit  mc_w.l(handlers.o)
    0x08004876   0x08004876   0x00000002   PAD
    0x08004878   0x08004878   0x000000b0   Code   RO           23    i.main              main.o
    0x08004928   0x08004928   0x00000010   Data   RO         2419    .constdata          stm32g4xx_hal_fdcan.o
    0x08004938   0x08004938   0x00000010   Data   RO         4125    .constdata          system_stm32g4xx.o
    0x08004948   0x08004948   0x00000038   Data   RO         4173    .constdata          foc_svpwm.o
    0x08004980   0x08004980   0x00000060   Data   RO         4438    .constdata          mg_grid .o
    0x080049e0   0x080049e0   0x00000020   Data   RO         4841    Region$$Table       anon$$obj.o


    Execution Region RW_IRAM1 (Exec base: 0x20000000, Load base: 0x08004a00, Size: 0x00000900, Max: 0x00008000, ABSOLUTE)

    Exec Addr    Load Addr    Size         Type   Attr      Idx    E Section Name        Object

    0x20000000   0x08004a00   0x00000004   Data   RW          355    .data               stm32g4xx_hal_msp.o
    0x20000004   0x08004a04   0x0000000c   Data   RW          918    .data               stm32g4xx_hal.o
    0x20000010   0x08004a10   0x00000004   Data   RW         4127    .data               system_stm32g4xx.o
    0x20000014   0x08004a14   0x00000018   Data   RW         4174    .data               foc_svpwm.o
    0x2000002c   0x08004a2c   0x00000004   Data   RW         4272    .data               foc_tasks.o
    0x20000030   0x08004a30   0x00000024   Data   RW         4439    .data               mg_grid .o
    0x20000054   0x08004a54   0x0000002c   Data   RW         4559    .data               pid_regulator.o
    0x20000080   0x08004a80   0x0000002c   Data   RW         4560    .data               pid_regulator.o
    0x200000ac   0x08004aac   0x0000002c   Data   RW         4561    .data               pid_regulator.o
    0x200000d8   0x08004ad8   0x00000014   Data   RW         4709    .data               trajectory_ctrl.o
    0x200000ec   0x08004aec   0x00000018   Data   RW         4786    .data               ui_can.o
    0x20000104        -       0x00000274   Zero   RW           24    .bss                main.o
    0x20000378        -       0x00000060   Zero   RW           25    .bss                main.o
    0x200003d8        -       0x00000060   Zero   RW           26    .bss                main.o
    0x20000438        -       0x00000014   Zero   RW         4172    .bss                foc_svpwm.o
    0x2000044c        -       0x00000068   Zero   RW         4708    .bss                trajectory_ctrl.o
    0x200004b4        -       0x0000004c   Zero   RW         4785    .bss                ui_can.o
    0x20000500        -       0x00000400   Zero   RW            1    STACK               startup_stm32g431xx.o


==============================================================================

Image component sizes


      Code (inc. data)   RO Data    RW Data    ZI Data      Debug   Object Name

      1838        128         56         24         20     145650   foc_svpwm.o
        56         16          0          4          0     457134   foc_tasks.o
      1620        106          0          0        820     691402   main.o
       388         42         96         36          0       3989   mg_grid .o
       208          6          0        132          0       5056   pid_regulator.o
        36          8        472          0       1024        828   startup_stm32g431xx.o
       162         24          0         12          0       4277   stm32g4xx_hal.o
      2138        114          0          0          0      78862   stm32g4xx_hal_adc.o
      1590         66          0          0          0      72825   stm32g4xx_hal_adc_ex.o
        52          0          0          0          0       1078   stm32g4xx_hal_cordic.o
       198         14          0          0          0      33791   stm32g4xx_hal_cortex.o
       680         30          0          0          0       5023   stm32g4xx_hal_dma.o
      1542         24         16          0          0      15537   stm32g4xx_hal_fdcan.o
       482         34          0          0          0       3057   stm32g4xx_hal_gpio.o
       772         84          0          4          0       5516   stm32g4xx_hal_msp.o
       288          8          0          0          0       2443   stm32g4xx_hal_opamp.o
       204         18          0          0          0       1393   stm32g4xx_hal_pwr_ex.o
      1620         64          0          0          0       4754   stm32g4xx_hal_rcc.o
       648         10          0          0          0       1860   stm32g4xx_hal_rcc_ex.o
      2142        222          0          0          0      15795   stm32g4xx_hal_tim.o
       328         32          0          0          0       2352   stm32g4xx_hal_tim_ex.o
        86         16          0          0          0     114052   stm32g4xx_it.o
        28          6         16          4          0       1135   system_stm32g4xx.o
       844         82          0         20        104       6621   trajectory_ctrl.o
       156         16          0         24         76       1967   ui_can.o

    ----------------------------------------------------------------------
     18132       1170        688        260       2044    1676397   Object Totals
         0          0         32          0          0          0   (incl. Generated)
        26          0          0          0          0          0   (incl. Padding)

    ----------------------------------------------------------------------

      Code (inc. data)   RO Data    RW Data    ZI Data      Debug   Library Member Name

         0          0          0          0          0          0   entry.o
         0          0          0          0          0          0   entry10a.o
         0          0          0          0          0          0   entry11a.o
         8          4          0          0          0          0   entry2.o
         4          0          0          0          0          0   entry5.o
         0          0          0          0          0          0   entry7b.o
         0          0          0          0          0          0   entry8b.o
         8          4          0          0          0          0   entry9a.o
        30          0          0          0          0          0   handlers.o
        36          8          0          0          0         68   init.o
        36          0          0          0          0        108   memseta.o

    ----------------------------------------------------------------------
       124         16          0          0          0        176   Library Totals
         2          0          0          0          0          0   (incl. Padding)

    ----------------------------------------------------------------------

      Code (inc. data)   RO Data    RW Data    ZI Data      Debug   Library Name

       122         16          0          0          0        176   mc_w.l

    ----------------------------------------------------------------------
       124         16          0          0          0        176   Library Totals

    ----------------------------------------------------------------------

==============================================================================


      Code (inc. data)   RO Data    RW Data    ZI Data      Debug   

     18256       1186        688        260       2044    1663177   Grand Totals
     18256       1186        688        260       2044    1663177   ELF Image Totals
     18256       1186        688        260          0          0   ROM Totals

==============================================================================

    Total RO  Size (Code + RO Data)                18944 (  18.50kB)
    Total RW  Size (RW Data + ZI Data)              2304 (   2.25kB)
    Total ROM Size (Code + RO Data + RW Data)      19204 (  18.75kB)

==============================================================================

